{
    "contractName": "FreshAFPunks",
    "abi": [
        {
            "inputs": [
                {
                    "internalType": "address payable",
                    "name": "_wallet",
                    "type": "address"
                }
            ],
            "stateMutability": "nonpayable",
            "type": "constructor"
        },
        {
            "anonymous": false,
            "inputs": [
                {
                    "indexed": true,
                    "internalType": "address",
                    "name": "owner",
                    "type": "address"
                },
                {
                    "indexed": true,
                    "internalType": "address",
                    "name": "approved",
                    "type": "address"
                },
                {
                    "indexed": true,
                    "internalType": "uint256",
                    "name": "tokenId",
                    "type": "uint256"
                }
            ],
            "name": "Approval",
            "type": "event"
        },
        {
            "anonymous": false,
            "inputs": [
                {
                    "indexed": true,
                    "internalType": "address",
                    "name": "owner",
                    "type": "address"
                },
                {
                    "indexed": true,
                    "internalType": "address",
                    "name": "operator",
                    "type": "address"
                },
                {
                    "indexed": false,
                    "internalType": "bool",
                    "name": "approved",
                    "type": "bool"
                }
            ],
            "name": "ApprovalForAll",
            "type": "event"
        },
        {
            "anonymous": false,
            "inputs": [
                {
                    "indexed": true,
                    "internalType": "address",
                    "name": "previousOwner",
                    "type": "address"
                },
                {
                    "indexed": true,
                    "internalType": "address",
                    "name": "newOwner",
                    "type": "address"
                }
            ],
            "name": "OwnershipTransferred",
            "type": "event"
        },
        {
            "anonymous": false,
            "inputs": [
                {
                    "indexed": true,
                    "internalType": "address",
                    "name": "from",
                    "type": "address"
                },
                {
                    "indexed": true,
                    "internalType": "address",
                    "name": "to",
                    "type": "address"
                },
                {
                    "indexed": true,
                    "internalType": "uint256",
                    "name": "tokenId",
                    "type": "uint256"
                }
            ],
            "name": "Transfer",
            "type": "event"
        },
        {
            "inputs": [
                {
                    "internalType": "address",
                    "name": "to",
                    "type": "address"
                },
                {
                    "internalType": "uint256",
                    "name": "tokenId",
                    "type": "uint256"
                }
            ],
            "name": "approve",
            "outputs": [],
            "stateMutability": "nonpayable",
            "type": "function"
        },
        {
            "inputs": [
                {
                    "internalType": "address",
                    "name": "owner",
                    "type": "address"
                }
            ],
            "name": "balanceOf",
            "outputs": [
                {
                    "internalType": "uint256",
                    "name": "",
                    "type": "uint256"
                }
            ],
            "stateMutability": "view",
            "type": "function"
        },
        {
            "inputs": [],
            "name": "baseURI",
            "outputs": [
                {
                    "internalType": "string",
                    "name": "",
                    "type": "string"
                }
            ],
            "stateMutability": "view",
            "type": "function"
        },
        {
            "inputs": [
                {
                    "internalType": "address payable",
                    "name": "_newWallet",
                    "type": "address"
                }
            ],
            "name": "changeWallet",
            "outputs": [],
            "stateMutability": "nonpayable",
            "type": "function"
        },
        {
            "inputs": [
                {
                    "internalType": "uint256",
                    "name": "tokenID",
                    "type": "uint256"
                }
            ],
            "name": "exists",
            "outputs": [
                {
                    "internalType": "bool",
                    "name": "",
                    "type": "bool"
                }
            ],
            "stateMutability": "view",
            "type": "function"
        },
        {
            "inputs": [
                {
                    "internalType": "uint256",
                    "name": "tokenId",
                    "type": "uint256"
                }
            ],
            "name": "getApproved",
            "outputs": [
                {
                    "internalType": "address",
                    "name": "",
                    "type": "address"
                }
            ],
            "stateMutability": "view",
            "type": "function"
        },
        {
            "inputs": [],
            "name": "getCurrentPrice",
            "outputs": [
                {
                    "internalType": "uint256",
                    "name": "",
                    "type": "uint256"
                }
            ],
            "stateMutability": "view",
            "type": "function"
        },
        {
            "inputs": [],
            "name": "hardLimit",
            "outputs": [
                {
                    "internalType": "uint256",
                    "name": "",
                    "type": "uint256"
                }
            ],
            "stateMutability": "view",
            "type": "function"
        },
        {
            "inputs": [
                {
                    "internalType": "address",
                    "name": "owner",
                    "type": "address"
                },
                {
                    "internalType": "address",
                    "name": "operator",
                    "type": "address"
                }
            ],
            "name": "isApprovedForAll",
            "outputs": [
                {
                    "internalType": "bool",
                    "name": "",
                    "type": "bool"
                }
            ],
            "stateMutability": "view",
            "type": "function"
        },
        {
            "inputs": [
                {
                    "internalType": "uint256",
                    "name": "tokenID",
                    "type": "uint256"
                }
            ],
            "name": "mint",
            "outputs": [],
            "stateMutability": "payable",
            "type": "function"
        },
        {
            "inputs": [
                {
                    "internalType": "uint256",
                    "name": "",
                    "type": "uint256"
                }
            ],
            "name": "mintedTokenIDs",
            "outputs": [
                {
                    "internalType": "uint256",
                    "name": "",
                    "type": "uint256"
                }
            ],
            "stateMutability": "view",
            "type": "function"
        },
        {
            "inputs": [],
            "name": "name",
            "outputs": [
                {
                    "internalType": "string",
                    "name": "",
                    "type": "string"
                }
            ],
            "stateMutability": "view",
            "type": "function"
        },
        {
            "inputs": [],
            "name": "owner",
            "outputs": [
                {
                    "internalType": "address",
                    "name": "",
                    "type": "address"
                }
            ],
            "stateMutability": "view",
            "type": "function"
        },
        {
            "inputs": [
                {
                    "internalType": "uint256",
                    "name": "tokenId",
                    "type": "uint256"
                }
            ],
            "name": "ownerOf",
            "outputs": [
                {
                    "internalType": "address",
                    "name": "",
                    "type": "address"
                }
            ],
            "stateMutability": "view",
            "type": "function"
        },
        {
            "inputs": [],
            "name": "renounceOwnership",
            "outputs": [],
            "stateMutability": "nonpayable",
            "type": "function"
        },
        {
            "inputs": [
                {
                    "internalType": "address",
                    "name": "from",
                    "type": "address"
                },
                {
                    "internalType": "address",
                    "name": "to",
                    "type": "address"
                },
                {
                    "internalType": "uint256",
                    "name": "tokenId",
                    "type": "uint256"
                }
            ],
            "name": "safeTransferFrom",
            "outputs": [],
            "stateMutability": "nonpayable",
            "type": "function"
        },
        {
            "inputs": [
                {
                    "internalType": "address",
                    "name": "from",
                    "type": "address"
                },
                {
                    "internalType": "address",
                    "name": "to",
                    "type": "address"
                },
                {
                    "internalType": "uint256",
                    "name": "tokenId",
                    "type": "uint256"
                },
                {
                    "internalType": "bytes",
                    "name": "_data",
                    "type": "bytes"
                }
            ],
            "name": "safeTransferFrom",
            "outputs": [],
            "stateMutability": "nonpayable",
            "type": "function"
        },
        {
            "inputs": [
                {
                    "internalType": "address",
                    "name": "operator",
                    "type": "address"
                },
                {
                    "internalType": "bool",
                    "name": "approved",
                    "type": "bool"
                }
            ],
            "name": "setApprovalForAll",
            "outputs": [],
            "stateMutability": "nonpayable",
            "type": "function"
        },
        {
            "inputs": [
                {
                    "internalType": "string",
                    "name": "baseURI",
                    "type": "string"
                }
            ],
            "name": "setBaseURI",
            "outputs": [],
            "stateMutability": "nonpayable",
            "type": "function"
        },
        {
            "inputs": [
                {
                    "internalType": "bytes4",
                    "name": "interfaceId",
                    "type": "bytes4"
                }
            ],
            "name": "supportsInterface",
            "outputs": [
                {
                    "internalType": "bool",
                    "name": "",
                    "type": "bool"
                }
            ],
            "stateMutability": "view",
            "type": "function"
        },
        {
            "inputs": [],
            "name": "symbol",
            "outputs": [
                {
                    "internalType": "string",
                    "name": "",
                    "type": "string"
                }
            ],
            "stateMutability": "view",
            "type": "function"
        },
        {
            "inputs": [
                {
                    "internalType": "uint256",
                    "name": "index",
                    "type": "uint256"
                }
            ],
            "name": "tokenByIndex",
            "outputs": [
                {
                    "internalType": "uint256",
                    "name": "",
                    "type": "uint256"
                }
            ],
            "stateMutability": "view",
            "type": "function"
        },
        {
            "inputs": [
                {
                    "internalType": "address",
                    "name": "owner",
                    "type": "address"
                },
                {
                    "internalType": "uint256",
                    "name": "index",
                    "type": "uint256"
                }
            ],
            "name": "tokenOfOwnerByIndex",
            "outputs": [
                {
                    "internalType": "uint256",
                    "name": "",
                    "type": "uint256"
                }
            ],
            "stateMutability": "view",
            "type": "function"
        },
        {
            "inputs": [
                {
                    "internalType": "uint256",
                    "name": "tokenId",
                    "type": "uint256"
                }
            ],
            "name": "tokenURI",
            "outputs": [
                {
                    "internalType": "string",
                    "name": "",
                    "type": "string"
                }
            ],
            "stateMutability": "view",
            "type": "function"
        },
        {
            "inputs": [],
            "name": "totalSupply",
            "outputs": [
                {
                    "internalType": "uint256",
                    "name": "",
                    "type": "uint256"
                }
            ],
            "stateMutability": "view",
            "type": "function"
        },
        {
            "inputs": [
                {
                    "internalType": "address",
                    "name": "from",
                    "type": "address"
                },
                {
                    "internalType": "address",
                    "name": "to",
                    "type": "address"
                },
                {
                    "internalType": "uint256",
                    "name": "tokenId",
                    "type": "uint256"
                }
            ],
            "name": "transferFrom",
            "outputs": [],
            "stateMutability": "nonpayable",
            "type": "function"
        },
        {
            "inputs": [
                {
                    "internalType": "address",
                    "name": "newOwner",
                    "type": "address"
                }
            ],
            "name": "transferOwnership",
            "outputs": [],
            "stateMutability": "nonpayable",
            "type": "function"
        }
    ],
    "bytecode": "60806040523480156200001157600080fd5b50604051620027f5380380620027f5833981810160405260208110156200003757600080fd5b5051604080518082018252600c81526b4672657368414650756e6b7360a01b60208281019190915282518084019093526007835266232922a9a420a360c91b9083015290620000966301ffc9a760e01b6001600160e01b03620001a516565b8151620000ab9060069060208501906200022f565b508051620000c19060079060208401906200022f565b50620000dd6380ac58cd60e01b6001600160e01b03620001a516565b620000f8635b5e139f60e01b6001600160e01b03620001a516565b6200011363780e9d6360e01b6001600160e01b03620001a516565b50600090506200012b6001600160e01b036200022a16565b600a80546001600160a01b0319166001600160a01b038316908117909155604051919250906000907f8be0079c531659141344cd1fd0a4f28419497f9722a3daafe3b4186f6b6457e0908290a350600c80546001600160a01b0319166001600160a01b03929092169190911790556130d4600b55620002d1565b6001600160e01b0319808216141562000205576040805162461bcd60e51b815260206004820152601c60248201527f4552433136353a20696e76616c696420696e7465726661636520696400000000604482015290519081900360640190fd5b6001600160e01b0319166000908152602081905260409020805460ff19166001179055565b335b90565b828054600181600116156101000203166002900490600052602060002090601f016020900481019282601f106200027257805160ff1916838001178555620002a2565b82800160010185558215620002a2579182015b82811115620002a257825182559160200191906001019062000285565b50620002b0929150620002b4565b5090565b6200022c91905b80821115620002b05760008155600101620002bb565b61251480620002e16000396000f3fe60806040526004361061019c5760003560e01c80636c0360eb116100ec578063a22cb4651161008a578063c87b56dd11610064578063c87b56dd1461072f578063e985e9c514610759578063eb91d37e14610794578063f2fde38b146107a95761019c565b8063a22cb4651461060c578063b88d4fde14610647578063c41f6d5f1461071a5761019c565b80638da5cb5b116100c65780638da5cb5b1461059257806395d89b41146105a757806398b9a2dc146105bc578063a0712d68146105ef5761019c565b80636c0360eb1461053557806370a082311461054a578063715018a61461057d5761019c565b806323b872dd116101595780634f558e79116101335780634f558e79146104045780634f6ccce71461042e57806355f804b3146104585780636352211e1461050b5761019c565b806323b872dd146103455780632f745c591461038857806342842e0e146103c15761019c565b806301ffc9a7146101a157806306fdde03146101e9578063081812fc14610273578063095ea7b3146102b957806309b3a777146102f457806318160ddd14610330575b600080fd5b3480156101ad57600080fd5b506101d5600480360360208110156101c457600080fd5b50356001600160e01b0319166107dc565b604080519115158252519081900360200190f35b3480156101f557600080fd5b506101fe6107ff565b6040805160208082528351818301528351919283929083019185019080838360005b83811015610238578181015183820152602001610220565b50505050905090810190601f1680156102655780820380516001836020036101000a031916815260200191505b509250505060405180910390f35b34801561027f57600080fd5b5061029d6004803603602081101561029657600080fd5b5035610896565b604080516001600160a01b039092168252519081900360200190f35b3480156102c557600080fd5b506102f2600480360360408110156102dc57600080fd5b506001600160a01b0381351690602001356108f8565b005b34801561030057600080fd5b5061031e6004803603602081101561031757600080fd5b50356109d3565b60408051918252519081900360200190f35b34801561033c57600080fd5b5061031e6109f1565b34801561035157600080fd5b506102f26004803603606081101561036857600080fd5b506001600160a01b03813581169160208101359091169060400135610a02565b34801561039457600080fd5b5061031e600480360360408110156103ab57600080fd5b506001600160a01b038135169060200135610a59565b3480156103cd57600080fd5b506102f2600480360360608110156103e457600080fd5b506001600160a01b03813581169160208101359091169060400135610a8a565b34801561041057600080fd5b506101d56004803603602081101561042757600080fd5b5035610aa5565b34801561043a57600080fd5b5061031e6004803603602081101561045157600080fd5b5035610ab0565b34801561046457600080fd5b506102f26004803603602081101561047b57600080fd5b81019060208101813564010000000081111561049657600080fd5b8201836020820111156104a857600080fd5b803590602001918460018302840111640100000000831117156104ca57600080fd5b91908080601f016020809104026020016040519081016040528093929190818152602001838380828437600092019190915250929550610acc945050505050565b34801561051757600080fd5b5061029d6004803603602081101561052e57600080fd5b5035610b3a565b34801561054157600080fd5b506101fe610b68565b34801561055657600080fd5b5061031e6004803603602081101561056d57600080fd5b50356001600160a01b0316610bc9565b34801561058957600080fd5b506102f2610c31565b34801561059e57600080fd5b5061029d610cdd565b3480156105b357600080fd5b506101fe610cec565b3480156105c857600080fd5b506102f2600480360360208110156105df57600080fd5b50356001600160a01b0316610d4d565b6102f26004803603602081101561060557600080fd5b5035610dd1565b34801561061857600080fd5b506102f26004803603604081101561062f57600080fd5b506001600160a01b0381351690602001351515610f53565b34801561065357600080fd5b506102f26004803603608081101561066a57600080fd5b6001600160a01b038235811692602081013590911691604082013591908101906080810160608201356401000000008111156106a557600080fd5b8201836020820111156106b757600080fd5b803590602001918460018302840111640100000000831117156106d957600080fd5b91908080601f016020809104026020016040519081016040528093929190818152602001838380828437600092019190915250929550611058945050505050565b34801561072657600080fd5b5061031e6110b6565b34801561073b57600080fd5b506101fe6004803603602081101561075257600080fd5b50356110bc565b34801561076557600080fd5b506101d56004803603604081101561077c57600080fd5b506001600160a01b038135811691602001351661133f565b3480156107a057600080fd5b5061031e61136d565b3480156107b557600080fd5b506102f2600480360360208110156107cc57600080fd5b50356001600160a01b031661147a565b6001600160e01b0319811660009081526020819052604090205460ff165b919050565b60068054604080516020601f600260001961010060018816150201909516949094049384018190048102820181019092528281526060939092909183018282801561088b5780601f106108605761010080835404028352916020019161088b565b820191906000526020600020905b81548152906001019060200180831161086e57829003601f168201915b505050505090505b90565b60006108a18261157d565b6108dc5760405162461bcd60e51b815260040180806020018281038252602c8152602001806123e9602c913960400191505060405180910390fd5b506000908152600460205260409020546001600160a01b031690565b600061090382610b3a565b9050806001600160a01b0316836001600160a01b031614156109565760405162461bcd60e51b815260040180806020018281038252602181526020018061248d6021913960400191505060405180910390fd5b806001600160a01b0316610968611590565b6001600160a01b03161480610989575061098981610984611590565b61133f565b6109c45760405162461bcd60e51b815260040180806020018281038252603881526020018061233c6038913960400191505060405180910390fd5b6109ce8383611594565b505050565b600d81815481106109e057fe5b600091825260209091200154905081565b60006109fd6002611602565b905090565b610a13610a0d611590565b8261160d565b610a4e5760405162461bcd60e51b81526004018080602001828103825260318152602001806124ae6031913960400191505060405180910390fd5b6109ce8383836116b1565b6001600160a01b0382166000908152600160205260408120610a81908363ffffffff61180f16565b90505b92915050565b6109ce83838360405180602001604052806000815250611058565b6000610a848261157d565b600080610ac460028463ffffffff61181b16565b509392505050565b610ad4611590565b6001600160a01b0316610ae5610cdd565b6001600160a01b031614610b2e576040805162461bcd60e51b81526020600482018190526024820152600080516020612415833981519152604482015290519081900360640190fd5b610b3781611837565b50565b6000610a848260405180606001604052806029815260200161239e602991396002919063ffffffff61184e16565b60098054604080516020601f600260001961010060018816150201909516949094049384018190048102820181019092528281526060939092909183018282801561088b5780601f106108605761010080835404028352916020019161088b565b60006001600160a01b038216610c105760405162461bcd60e51b815260040180806020018281038252602a815260200180612374602a913960400191505060405180910390fd5b6001600160a01b0382166000908152600160205260409020610a8490611602565b610c39611590565b6001600160a01b0316610c4a610cdd565b6001600160a01b031614610c93576040805162461bcd60e51b81526020600482018190526024820152600080516020612415833981519152604482015290519081900360640190fd5b600a546040516000916001600160a01b0316907f8be0079c531659141344cd1fd0a4f28419497f9722a3daafe3b4186f6b6457e0908390a3600a80546001600160a01b0319169055565b600a546001600160a01b031690565b60078054604080516020601f600260001961010060018816150201909516949094049384018190048102820181019092528281526060939092909183018282801561088b5780601f106108605761010080835404028352916020019161088b565b610d55611590565b6001600160a01b0316610d66610cdd565b6001600160a01b031614610daf576040805162461bcd60e51b81526020600482018190526024820152600080516020612415833981519152604482015290519081900360640190fd5b600c80546001600160a01b0319166001600160a01b0392909216919091179055565b6000610ddb61136d565b9050600b54821115610e29576040805162461bcd60e51b8152602060048201526012602482015271151bdad95b9251081a5cc81a5b9d985b1a5960721b604482015290519081900360640190fd5b80341015610e7e576040805162461bcd60e51b815260206004820152601e60248201527f436f7374206f66204672657368414650756e6b206973206e6f74206d65740000604482015290519081900360640190fd5b610e878261157d565b15610ed9576040805162461bcd60e51b815260206004820152601860248201527f4672657368414650756e6b20616c726561647920736f6c640000000000000000604482015290519081900360640190fd5b610ee33383611865565b600c546040516001600160a01b03909116903480156108fc02916000818181858888f19350505050158015610f1c573d6000803e3d6000fd5b5050600d80546001810182556000919091527fd7b6990105719101dabeb77144f2a3385c8033acd3af97e9423a695e81ad1eb50155565b610f5b611590565b6001600160a01b0316826001600160a01b03161415610fc1576040805162461bcd60e51b815260206004820152601960248201527f4552433732313a20617070726f766520746f2063616c6c657200000000000000604482015290519081900360640190fd5b8060056000610fce611590565b6001600160a01b03908116825260208083019390935260409182016000908120918716808252919093529120805460ff191692151592909217909155611012611590565b60408051841515815290516001600160a01b0392909216917f17307eab39ab6107e8899845ad3d59bd9653f200f220920489ca2b5937696c319181900360200190a35050565b611069611063611590565b8361160d565b6110a45760405162461bcd60e51b81526004018080602001828103825260318152602001806124ae6031913960400191505060405180910390fd5b6110b08484848461187f565b50505050565b600b5481565b60606110c78261157d565b6111025760405162461bcd60e51b815260040180806020018281038252602f81526020018061245e602f913960400191505060405180910390fd5b60008281526008602090815260409182902080548351601f60026000196101006001861615020190931692909204918201849004840281018401909452808452606093928301828280156111975780601f1061116c57610100808354040283529160200191611197565b820191906000526020600020905b81548152906001019060200180831161117a57829003601f168201915b5050505050905060606111a8610b68565b90508051600014156111bc575090506107fa565b81511561127d5780826040516020018083805190602001908083835b602083106111f75780518252601f1990920191602091820191016111d8565b51815160209384036101000a600019018019909216911617905285519190930192850191508083835b6020831061123f5780518252601f199092019160209182019101611220565b6001836020036101000a03801982511681845116808217855250505050505090500192505050604051602081830303815290604052925050506107fa565b80611287856118d1565b6040516020018083805190602001908083835b602083106112b95780518252601f19909201916020918201910161129a565b51815160209384036101000a600019018019909216911617905285519190930192850191508083835b602083106113015780518252601f1990920191602091820191016112e2565b6001836020036101000a0380198251168184511680821785525050505050509050019250505060405160208183030381529060405292505050919050565b6001600160a01b03918216600090815260056020908152604080832093909416825291909152205460ff1690565b6000806113786109f1565b9050600061012c82116113935750662386f26fc10000611474565b61012c821180156113a657506103e88211155b156113b957506658d15e17628000611474565b6103e8821180156113cc5750610bb88211155b156113df5750667c585087238000611474565b610bb8821180156113f257506113888211155b156114055750669fdf42f6e48000611474565b611388821180156114185750611b588211155b1561142b575066c3663566a58000611474565b611b588211801561143e57506123288211155b15611451575066e6ed27d6668000611474565b612328821180156114645750600b548211155b15611474575067010a741a462780005b91505090565b611482611590565b6001600160a01b0316611493610cdd565b6001600160a01b0316146114dc576040805162461bcd60e51b81526020600482018190526024820152600080516020612415833981519152604482015290519081900360640190fd5b6001600160a01b0381166115215760405162461bcd60e51b81526004018080602001828103825260268152602001806122c66026913960400191505060405180910390fd5b600a546040516001600160a01b038084169216907f8be0079c531659141344cd1fd0a4f28419497f9722a3daafe3b4186f6b6457e090600090a3600a80546001600160a01b0319166001600160a01b0392909216919091179055565b6000610a8460028363ffffffff61199516565b3390565b600081815260046020526040902080546001600160a01b0319166001600160a01b03841690811790915581906115c982610b3a565b6001600160a01b03167f8c5be1e5ebec7d5bd14f71427d1e84f3dd0314c0f7b2291e5b200ac8c7c3b92560405160405180910390a45050565b6000610a84826119a1565b60006116188261157d565b6116535760405162461bcd60e51b815260040180806020018281038252602c815260200180612310602c913960400191505060405180910390fd5b600061165e83610b3a565b9050806001600160a01b0316846001600160a01b031614806116995750836001600160a01b031661168e84610896565b6001600160a01b0316145b806116a957506116a9818561133f565b949350505050565b826001600160a01b03166116c482610b3a565b6001600160a01b0316146117095760405162461bcd60e51b81526004018080602001828103825260298152602001806124356029913960400191505060405180910390fd5b6001600160a01b03821661174e5760405162461bcd60e51b81526004018080602001828103825260248152602001806122ec6024913960400191505060405180910390fd5b6117598383836109ce565b611764600082611594565b6001600160a01b038316600090815260016020526040902061178c908263ffffffff6119a516565b506001600160a01b03821660009081526001602052604090206117b5908263ffffffff6119b116565b506117c86002828463ffffffff6119bd16565b5080826001600160a01b0316846001600160a01b03167fddf252ad1be2c89b69c2b068fc378daa952ba7f163c4a11628f55a4df523b3ef60405160405180910390a4505050565b6000610a8183836119d3565b600080808061182a8686611a37565b9097909650945050505050565b805161184a9060099060208401906121d9565b5050565b600061185b848484611ab2565b90505b9392505050565b61184a828260405180602001604052806000815250611b7c565b61188a8484846116b1565b61189684848484611bce565b6110b05760405162461bcd60e51b81526004018080602001828103825260328152602001806122946032913960400191505060405180910390fd5b6060816118f657506040805180820190915260018152600360fc1b60208201526107fa565b8160005b811561190e57600101600a820491506118fa565b6060816040519080825280601f01601f19166020018201604052801561193b576020820181803883390190505b50859350905060001982015b831561198c57600a840660300160f81b8282806001900393508151811061196a57fe5b60200101906001600160f81b031916908160001a905350600a84049350611947565b50949350505050565b6000610a818383611d4e565b5490565b6000610a818383611d66565b6000610a818383611e2c565b600061185b84846001600160a01b038516611e76565b81546000908210611a155760405162461bcd60e51b81526004018080602001828103825260228152602001806122726022913960400191505060405180910390fd5b826000018281548110611a2457fe5b9060005260206000200154905092915050565b815460009081908310611a7b5760405162461bcd60e51b81526004018080602001828103825260228152602001806123c76022913960400191505060405180910390fd5b6000846000018481548110611a8c57fe5b906000526020600020906002020190508060000154816001015492509250509250929050565b60008281526001840160205260408120548281611b4d5760405162461bcd60e51b81526004018080602001828103825283818151815260200191508051906020019080838360005b83811015611b12578181015183820152602001611afa565b50505050905090810190601f168015611b3f5780820380516001836020036101000a031916815260200191505b509250505060405180910390fd5b50846000016001820381548110611b6057fe5b9060005260206000209060020201600101549150509392505050565b611b868383611f0d565b611b936000848484611bce565b6109ce5760405162461bcd60e51b81526004018080602001828103825260328152602001806122946032913960400191505060405180910390fd5b6000611be2846001600160a01b0316612047565b611bee575060016116a9565b6060611d14630a85bd0160e11b611c03611590565b88878760405160240180856001600160a01b03166001600160a01b03168152602001846001600160a01b03166001600160a01b0316815260200183815260200180602001828103825283818151815260200191508051906020019080838360005b83811015611c7c578181015183820152602001611c64565b50505050905090810190601f168015611ca95780820380516001836020036101000a031916815260200191505b5095505050505050604051602081830303815290604052906001600160e01b0319166020820180516001600160e01b038381831617835250505050604051806060016040528060328152602001612294603291396001600160a01b038816919063ffffffff61204d16565b90506000818060200190516020811015611d2d57600080fd5b50516001600160e01b031916630a85bd0160e11b1492505050949350505050565b60009081526001919091016020526040902054151590565b60008181526001830160205260408120548015611e225783546000198083019190810190600090879083908110611d9957fe5b9060005260206000200154905080876000018481548110611db657fe5b600091825260208083209091019290925582815260018981019092526040902090840190558654879080611de657fe5b60019003818190600052602060002001600090559055866001016000878152602001908152602001600020600090556001945050505050610a84565b6000915050610a84565b6000611e388383611d4e565b611e6e57508154600181810184556000848152602080822090930184905584548482528286019093526040902091909155610a84565b506000610a84565b600082815260018401602052604081205480611edb57505060408051808201825283815260208082018481528654600181810189556000898152848120955160029093029095019182559151908201558654868452818801909252929091205561185e565b82856000016001830381548110611eee57fe5b906000526020600020906002020160010181905550600091505061185e565b6001600160a01b038216611f68576040805162461bcd60e51b815260206004820181905260248201527f4552433732313a206d696e7420746f20746865207a65726f2061646472657373604482015290519081900360640190fd5b611f718161157d565b15611fc3576040805162461bcd60e51b815260206004820152601c60248201527f4552433732313a20746f6b656e20616c7265616479206d696e74656400000000604482015290519081900360640190fd5b611fcf600083836109ce565b6001600160a01b0382166000908152600160205260409020611ff7908263ffffffff6119b116565b5061200a6002828463ffffffff6119bd16565b5060405181906001600160a01b038416906000907fddf252ad1be2c89b69c2b068fc378daa952ba7f163c4a11628f55a4df523b3ef908290a45050565b3b151590565b606061185b84846000858561206185612047565b6120b2576040805162461bcd60e51b815260206004820152601d60248201527f416464726573733a2063616c6c20746f206e6f6e2d636f6e7472616374000000604482015290519081900360640190fd5b60006060866001600160a01b031685876040518082805190602001908083835b602083106120f15780518252601f1990920191602091820191016120d2565b6001836020036101000a03801982511681845116808217855250505050505090500191505060006040518083038185875af1925050503d8060008114612153576040519150601f19603f3d011682016040523d82523d6000602084013e612158565b606091505b5091509150612168828286612173565b979650505050505050565b6060831561218257508161185e565b8251156121925782518084602001fd5b60405162461bcd60e51b8152602060048201818152845160248401528451859391928392604401919085019080838360008315611b12578181015183820152602001611afa565b828054600181600116156101000203166002900490600052602060002090601f016020900481019282601f1061221a57805160ff1916838001178555612247565b82800160010185558215612247579182015b8281111561224757825182559160200191906001019061222c565b50612253929150612257565b5090565b61089391905b80821115612253576000815560010161225d56fe456e756d657261626c655365743a20696e646578206f7574206f6620626f756e64734552433732313a207472616e7366657220746f206e6f6e20455243373231526563656976657220696d706c656d656e7465724f776e61626c653a206e6577206f776e657220697320746865207a65726f20616464726573734552433732313a207472616e7366657220746f20746865207a65726f20616464726573734552433732313a206f70657261746f7220717565727920666f72206e6f6e6578697374656e7420746f6b656e4552433732313a20617070726f76652063616c6c6572206973206e6f74206f776e6572206e6f7220617070726f76656420666f7220616c6c4552433732313a2062616c616e636520717565727920666f7220746865207a65726f20616464726573734552433732313a206f776e657220717565727920666f72206e6f6e6578697374656e7420746f6b656e456e756d657261626c654d61703a20696e646578206f7574206f6620626f756e64734552433732313a20617070726f76656420717565727920666f72206e6f6e6578697374656e7420746f6b656e4f776e61626c653a2063616c6c6572206973206e6f7420746865206f776e65724552433732313a207472616e73666572206f6620746f6b656e2074686174206973206e6f74206f776e4552433732314d657461646174613a2055524920717565727920666f72206e6f6e6578697374656e7420746f6b656e4552433732313a20617070726f76616c20746f2063757272656e74206f776e65724552433732313a207472616e736665722063616c6c6572206973206e6f74206f776e6572206e6f7220617070726f766564a264697066735822122070ce7a5281c15cb636a2b66047da13cf47614ef1de24e3d456aaf3674c5de80764736f6c63430006020033",
    "sourcePath": "c:/Users/dev/Desktop/NFTFun/FreshAFPunks/contracts/FreshAFPunks.sol",
    "compiler": {
        "name": "solc",
        "version": "0.6.2+commit.bacdbe57"
    },
    "functionHashes": {
        "approve(address,uint256)": "095ea7b3",
        "balanceOf(address)": "70a08231",
        "baseURI()": "6c0360eb",
        "changeWallet(address)": "98b9a2dc",
        "exists(uint256)": "4f558e79",
        "getApproved(uint256)": "081812fc",
        "getCurrentPrice()": "eb91d37e",
        "hardLimit()": "c41f6d5f",
        "isApprovedForAll(address,address)": "e985e9c5",
        "mint(uint256)": "a0712d68",
        "mintedTokenIDs(uint256)": "09b3a777",
        "name()": "06fdde03",
        "owner()": "8da5cb5b",
        "ownerOf(uint256)": "6352211e",
        "renounceOwnership()": "715018a6",
        "safeTransferFrom(address,address,uint256)": "42842e0e",
        "safeTransferFrom(address,address,uint256,bytes)": "b88d4fde",
        "setApprovalForAll(address,bool)": "a22cb465",
        "setBaseURI(string)": "55f804b3",
        "supportsInterface(bytes4)": "01ffc9a7",
        "symbol()": "95d89b41",
        "tokenByIndex(uint256)": "4f6ccce7",
        "tokenOfOwnerByIndex(address,uint256)": "2f745c59",
        "tokenURI(uint256)": "c87b56dd",
        "totalSupply()": "18160ddd",
        "transferFrom(address,address,uint256)": "23b872dd",
        "transferOwnership(address)": "f2fde38b"
    },
    "gasEstimates": {
        "creation": {
            "codeDepositCost": "1898400",
            "executionCost": "infinite",
            "totalCost": "infinite"
        },
        "external": {
            "approve(address,uint256)": "infinite",
            "balanceOf(address)": "infinite",
            "baseURI()": "infinite",
            "changeWallet(address)": "infinite",
            "exists(uint256)": "infinite",
            "getApproved(uint256)": "infinite",
            "getCurrentPrice()": "2397",
            "hardLimit()": "1087",
            "isApprovedForAll(address,address)": "1328",
            "mint(uint256)": "infinite",
            "mintedTokenIDs(uint256)": "2043",
            "name()": "infinite",
            "owner()": "1082",
            "ownerOf(uint256)": "infinite",
            "renounceOwnership()": "infinite",
            "safeTransferFrom(address,address,uint256)": "infinite",
            "safeTransferFrom(address,address,uint256,bytes)": "infinite",
            "setApprovalForAll(address,bool)": "infinite",
            "setBaseURI(string)": "infinite",
            "supportsInterface(bytes4)": "1196",
            "symbol()": "infinite",
            "tokenByIndex(uint256)": "infinite",
            "tokenOfOwnerByIndex(address,uint256)": "infinite",
            "tokenURI(uint256)": "infinite",
            "totalSupply()": "1207",
            "transferFrom(address,address,uint256)": "infinite",
            "transferOwnership(address)": "infinite"
        }
    }
}