{
  "contractName": "FreshAFPunks",
  "abi": [
    {
      "inputs": [
        {
          "internalType": "address payable",
          "name": "_wallet",
          "type": "address"
        }
      ],
      "stateMutability": "nonpayable",
      "type": "constructor"
    },
    {
      "anonymous": false,
      "inputs": [
        {
          "indexed": true,
          "internalType": "address",
          "name": "owner",
          "type": "address"
        },
        {
          "indexed": true,
          "internalType": "address",
          "name": "approved",
          "type": "address"
        },
        {
          "indexed": true,
          "internalType": "uint256",
          "name": "tokenId",
          "type": "uint256"
        }
      ],
      "name": "Approval",
      "type": "event"
    },
    {
      "anonymous": false,
      "inputs": [
        {
          "indexed": true,
          "internalType": "address",
          "name": "owner",
          "type": "address"
        },
        {
          "indexed": true,
          "internalType": "address",
          "name": "operator",
          "type": "address"
        },
        {
          "indexed": false,
          "internalType": "bool",
          "name": "approved",
          "type": "bool"
        }
      ],
      "name": "ApprovalForAll",
      "type": "event"
    },
    {
      "anonymous": false,
      "inputs": [
        {
          "indexed": true,
          "internalType": "address",
          "name": "previousOwner",
          "type": "address"
        },
        {
          "indexed": true,
          "internalType": "address",
          "name": "newOwner",
          "type": "address"
        }
      ],
      "name": "OwnershipTransferred",
      "type": "event"
    },
    {
      "anonymous": false,
      "inputs": [
        {
          "indexed": true,
          "internalType": "address",
          "name": "from",
          "type": "address"
        },
        {
          "indexed": true,
          "internalType": "address",
          "name": "to",
          "type": "address"
        },
        {
          "indexed": true,
          "internalType": "uint256",
          "name": "tokenId",
          "type": "uint256"
        }
      ],
      "name": "Transfer",
      "type": "event"
    },
    {
      "inputs": [
        {
          "internalType": "address",
          "name": "to",
          "type": "address"
        },
        {
          "internalType": "uint256",
          "name": "tokenId",
          "type": "uint256"
        }
      ],
      "name": "approve",
      "outputs": [],
      "stateMutability": "nonpayable",
      "type": "function"
    },
    {
      "inputs": [
        {
          "internalType": "address",
          "name": "owner",
          "type": "address"
        }
      ],
      "name": "balanceOf",
      "outputs": [
        {
          "internalType": "uint256",
          "name": "",
          "type": "uint256"
        }
      ],
      "stateMutability": "view",
      "type": "function"
    },
    {
      "inputs": [],
      "name": "baseURI",
      "outputs": [
        {
          "internalType": "string",
          "name": "",
          "type": "string"
        }
      ],
      "stateMutability": "view",
      "type": "function"
    },
    {
      "inputs": [
        {
          "internalType": "uint256",
          "name": "tokenId",
          "type": "uint256"
        }
      ],
      "name": "getApproved",
      "outputs": [
        {
          "internalType": "address",
          "name": "",
          "type": "address"
        }
      ],
      "stateMutability": "view",
      "type": "function"
    },
    {
      "inputs": [],
      "name": "hardLimit",
      "outputs": [
        {
          "internalType": "uint256",
          "name": "",
          "type": "uint256"
        }
      ],
      "stateMutability": "view",
      "type": "function"
    },
    {
      "inputs": [
        {
          "internalType": "address",
          "name": "owner",
          "type": "address"
        },
        {
          "internalType": "address",
          "name": "operator",
          "type": "address"
        }
      ],
      "name": "isApprovedForAll",
      "outputs": [
        {
          "internalType": "bool",
          "name": "",
          "type": "bool"
        }
      ],
      "stateMutability": "view",
      "type": "function"
    },
    {
      "inputs": [],
      "name": "name",
      "outputs": [
        {
          "internalType": "string",
          "name": "",
          "type": "string"
        }
      ],
      "stateMutability": "view",
      "type": "function"
    },
    {
      "inputs": [],
      "name": "owner",
      "outputs": [
        {
          "internalType": "address",
          "name": "",
          "type": "address"
        }
      ],
      "stateMutability": "view",
      "type": "function"
    },
    {
      "inputs": [
        {
          "internalType": "uint256",
          "name": "tokenId",
          "type": "uint256"
        }
      ],
      "name": "ownerOf",
      "outputs": [
        {
          "internalType": "address",
          "name": "",
          "type": "address"
        }
      ],
      "stateMutability": "view",
      "type": "function"
    },
    {
      "inputs": [],
      "name": "renounceOwnership",
      "outputs": [],
      "stateMutability": "nonpayable",
      "type": "function"
    },
    {
      "inputs": [
        {
          "internalType": "address",
          "name": "from",
          "type": "address"
        },
        {
          "internalType": "address",
          "name": "to",
          "type": "address"
        },
        {
          "internalType": "uint256",
          "name": "tokenId",
          "type": "uint256"
        }
      ],
      "name": "safeTransferFrom",
      "outputs": [],
      "stateMutability": "nonpayable",
      "type": "function"
    },
    {
      "inputs": [
        {
          "internalType": "address",
          "name": "from",
          "type": "address"
        },
        {
          "internalType": "address",
          "name": "to",
          "type": "address"
        },
        {
          "internalType": "uint256",
          "name": "tokenId",
          "type": "uint256"
        },
        {
          "internalType": "bytes",
          "name": "_data",
          "type": "bytes"
        }
      ],
      "name": "safeTransferFrom",
      "outputs": [],
      "stateMutability": "nonpayable",
      "type": "function"
    },
    {
      "inputs": [
        {
          "internalType": "address",
          "name": "operator",
          "type": "address"
        },
        {
          "internalType": "bool",
          "name": "approved",
          "type": "bool"
        }
      ],
      "name": "setApprovalForAll",
      "outputs": [],
      "stateMutability": "nonpayable",
      "type": "function"
    },
    {
      "inputs": [
        {
          "internalType": "bytes4",
          "name": "interfaceId",
          "type": "bytes4"
        }
      ],
      "name": "supportsInterface",
      "outputs": [
        {
          "internalType": "bool",
          "name": "",
          "type": "bool"
        }
      ],
      "stateMutability": "view",
      "type": "function"
    },
    {
      "inputs": [],
      "name": "symbol",
      "outputs": [
        {
          "internalType": "string",
          "name": "",
          "type": "string"
        }
      ],
      "stateMutability": "view",
      "type": "function"
    },
    {
      "inputs": [
        {
          "internalType": "uint256",
          "name": "index",
          "type": "uint256"
        }
      ],
      "name": "tokenByIndex",
      "outputs": [
        {
          "internalType": "uint256",
          "name": "",
          "type": "uint256"
        }
      ],
      "stateMutability": "view",
      "type": "function"
    },
    {
      "inputs": [
        {
          "internalType": "address",
          "name": "owner",
          "type": "address"
        },
        {
          "internalType": "uint256",
          "name": "index",
          "type": "uint256"
        }
      ],
      "name": "tokenOfOwnerByIndex",
      "outputs": [
        {
          "internalType": "uint256",
          "name": "",
          "type": "uint256"
        }
      ],
      "stateMutability": "view",
      "type": "function"
    },
    {
      "inputs": [
        {
          "internalType": "uint256",
          "name": "tokenId",
          "type": "uint256"
        }
      ],
      "name": "tokenURI",
      "outputs": [
        {
          "internalType": "string",
          "name": "",
          "type": "string"
        }
      ],
      "stateMutability": "view",
      "type": "function"
    },
    {
      "inputs": [],
      "name": "totalSupply",
      "outputs": [
        {
          "internalType": "uint256",
          "name": "",
          "type": "uint256"
        }
      ],
      "stateMutability": "view",
      "type": "function"
    },
    {
      "inputs": [
        {
          "internalType": "address",
          "name": "from",
          "type": "address"
        },
        {
          "internalType": "address",
          "name": "to",
          "type": "address"
        },
        {
          "internalType": "uint256",
          "name": "tokenId",
          "type": "uint256"
        }
      ],
      "name": "transferFrom",
      "outputs": [],
      "stateMutability": "nonpayable",
      "type": "function"
    },
    {
      "inputs": [
        {
          "internalType": "address",
          "name": "newOwner",
          "type": "address"
        }
      ],
      "name": "transferOwnership",
      "outputs": [],
      "stateMutability": "nonpayable",
      "type": "function"
    },
    {
      "inputs": [],
      "name": "contractURI",
      "outputs": [
        {
          "internalType": "string",
          "name": "",
          "type": "string"
        }
      ],
      "stateMutability": "view",
      "type": "function"
    },
    {
      "inputs": [
        {
          "internalType": "string",
          "name": "baseURI",
          "type": "string"
        }
      ],
      "name": "setBaseURI",
      "outputs": [],
      "stateMutability": "nonpayable",
      "type": "function"
    },
    {
      "inputs": [
        {
          "internalType": "address payable",
          "name": "_newWallet",
          "type": "address"
        }
      ],
      "name": "changeWallet",
      "outputs": [],
      "stateMutability": "nonpayable",
      "type": "function"
    },
    {
      "inputs": [
        {
          "internalType": "uint256",
          "name": "tokenID",
          "type": "uint256"
        }
      ],
      "name": "mint",
      "outputs": [],
      "stateMutability": "payable",
      "type": "function"
    },
    {
      "inputs": [],
      "name": "getCurrentPrice",
      "outputs": [
        {
          "internalType": "uint256",
          "name": "",
          "type": "uint256"
        }
      ],
      "stateMutability": "view",
      "type": "function"
    }
  ],
  "bytecode": "0x60806040523480156200001157600080fd5b5060405162003dfa38038062003dfa833981810160405260208110156200003757600080fd5b81019080805190602001909291905050506040518060400160405280600c81526020017f4672657368414650756e6b7300000000000000000000000000000000000000008152506040518060400160405280600781526020017f4652455348414600000000000000000000000000000000000000000000000000815250620000cc6301ffc9a760e01b6200027460201b60201c565b8160069080519060200190620000e4929190620003a1565b508060079080519060200190620000fd929190620003a1565b50620001166380ac58cd60e01b6200027460201b60201c565b6200012e635b5e139f60e01b6200027460201b60201c565b6200014663780e9d6360e01b6200027460201b60201c565b505060006200015a6200037d60201b60201c565b905080600a60006101000a81548173ffffffffffffffffffffffffffffffffffffffff021916908373ffffffffffffffffffffffffffffffffffffffff1602179055508073ffffffffffffffffffffffffffffffffffffffff16600073ffffffffffffffffffffffffffffffffffffffff167f8be0079c531659141344cd1fd0a4f28419497f9722a3daafe3b4186f6b6457e060405160405180910390a35080600c60006101000a81548173ffffffffffffffffffffffffffffffffffffffff021916908373ffffffffffffffffffffffffffffffffffffffff1602179055506130d4600b819055506200026d6040518060600160405280603a815260200162003dc0603a91396200038560201b60201c565b5062000447565b63ffffffff60e01b817bffffffffffffffffffffffffffffffffffffffffffffffffffffffff1916141562000311576040517f08c379a000000000000000000000000000000000000000000000000000000000815260040180806020018281038252601c8152602001807f4552433136353a20696e76616c696420696e746572666163652069640000000081525060200191505060405180910390fd5b6001600080837bffffffffffffffffffffffffffffffffffffffffffffffffffffffff19167bffffffffffffffffffffffffffffffffffffffffffffffffffffffff1916815260200190815260200160002060006101000a81548160ff02191690831515021790555050565b600033905090565b80600990805190602001906200039d929190620003a1565b5050565b828054600181600116156101000203166002900490600052602060002090601f016020900481019282601f10620003e457805160ff191683800117855562000415565b8280016001018555821562000415579182015b8281111562000414578251825591602001919060010190620003f7565b5b50905062000424919062000428565b5090565b5b808211156200044357600081600090555060010162000429565b5090565b61396980620004576000396000f3fe6080604052600436106101815760003560e01c8063715018a6116100d1578063b88d4fde1161008a578063e8a3d48511610064578063e8a3d48514610afc578063e985e9c514610b8c578063eb91d37e14610c13578063f2fde38b14610c3e57610181565b8063b88d4fde1461090b578063c41f6d5f14610a1d578063c87b56dd14610a4857610181565b8063715018a6146107475780638da5cb5b1461075e57806395d89b411461079f57806398b9a2dc1461082f578063a0712d6814610880578063a22cb465146108ae57610181565b80632f745c591161013e57806355f804b31161011857806355f804b3146105255780636352211e146105ed5780636c0360eb1461065257806370a08231146106e257610181565b80632f745c59146103ec57806342842e0e1461045b5780634f6ccce7146104d657610181565b806301ffc9a71461018657806306fdde03146101f6578063081812fc14610286578063095ea7b3146102eb57806318160ddd1461034657806323b872dd14610371575b600080fd5b34801561019257600080fd5b506101de600480360360208110156101a957600080fd5b8101908080357bffffffffffffffffffffffffffffffffffffffffffffffffffffffff19169060200190929190505050610c8f565b60405180821515815260200191505060405180910390f35b34801561020257600080fd5b5061020b610cf6565b6040518080602001828103825283818151815260200191508051906020019080838360005b8381101561024b578082015181840152602081019050610230565b50505050905090810190601f1680156102785780820380516001836020036101000a031916815260200191505b509250505060405180910390f35b34801561029257600080fd5b506102bf600480360360208110156102a957600080fd5b8101908080359060200190929190505050610d98565b604051808273ffffffffffffffffffffffffffffffffffffffff16815260200191505060405180910390f35b3480156102f757600080fd5b506103446004803603604081101561030e57600080fd5b81019080803573ffffffffffffffffffffffffffffffffffffffff16906020019092919080359060200190929190505050610e33565b005b34801561035257600080fd5b5061035b610f77565b6040518082815260200191505060405180910390f35b34801561037d57600080fd5b506103ea6004803603606081101561039457600080fd5b81019080803573ffffffffffffffffffffffffffffffffffffffff169060200190929190803573ffffffffffffffffffffffffffffffffffffffff16906020019092919080359060200190929190505050610f88565b005b3480156103f857600080fd5b506104456004803603604081101561040f57600080fd5b81019080803573ffffffffffffffffffffffffffffffffffffffff16906020019092919080359060200190929190505050610ffe565b6040518082815260200191505060405180910390f35b34801561046757600080fd5b506104d46004803603606081101561047e57600080fd5b81019080803573ffffffffffffffffffffffffffffffffffffffff169060200190929190803573ffffffffffffffffffffffffffffffffffffffff16906020019092919080359060200190929190505050611059565b005b3480156104e257600080fd5b5061050f600480360360208110156104f957600080fd5b8101908080359060200190929190505050611079565b6040518082815260200191505060405180910390f35b34801561053157600080fd5b506105eb6004803603602081101561054857600080fd5b810190808035906020019064010000000081111561056557600080fd5b82018360208201111561057757600080fd5b8035906020019184600183028401116401000000008311171561059957600080fd5b91908080601f016020809104026020016040519081016040528093929190818152602001838380828437600081840152601f19601f82011690508083019250505050505050919291929050505061109c565b005b3480156105f957600080fd5b506106266004803603602081101561061057600080fd5b8101908080359060200190929190505050611157565b604051808273ffffffffffffffffffffffffffffffffffffffff16815260200191505060405180910390f35b34801561065e57600080fd5b5061066761118e565b6040518080602001828103825283818151815260200191508051906020019080838360005b838110156106a757808201518184015260208101905061068c565b50505050905090810190601f1680156106d45780820380516001836020036101000a031916815260200191505b509250505060405180910390f35b3480156106ee57600080fd5b506107316004803603602081101561070557600080fd5b81019080803573ffffffffffffffffffffffffffffffffffffffff169060200190929190505050611230565b6040518082815260200191505060405180910390f35b34801561075357600080fd5b5061075c611305565b005b34801561076a57600080fd5b50610773611475565b604051808273ffffffffffffffffffffffffffffffffffffffff16815260200191505060405180910390f35b3480156107ab57600080fd5b506107b461149f565b6040518080602001828103825283818151815260200191508051906020019080838360005b838110156107f45780820151818401526020810190506107d9565b50505050905090810190601f1680156108215780820380516001836020036101000a031916815260200191505b509250505060405180910390f35b34801561083b57600080fd5b5061087e6004803603602081101561085257600080fd5b81019080803573ffffffffffffffffffffffffffffffffffffffff169060200190929190505050611541565b005b6108ac6004803603602081101561089657600080fd5b8101908080359060200190929190505050611634565b005b3480156108ba57600080fd5b50610909600480360360408110156108d157600080fd5b81019080803573ffffffffffffffffffffffffffffffffffffffff169060200190929190803515159060200190929190505050611821565b005b34801561091757600080fd5b50610a1b6004803603608081101561092e57600080fd5b81019080803573ffffffffffffffffffffffffffffffffffffffff169060200190929190803573ffffffffffffffffffffffffffffffffffffffff169060200190929190803590602001909291908035906020019064010000000081111561099557600080fd5b8201836020820111156109a757600080fd5b803590602001918460018302840111640100000000831117156109c957600080fd5b91908080601f016020809104026020016040519081016040528093929190818152602001838380828437600081840152601f19601f8201169050808301925050505050505091929192905050506119d7565b005b348015610a2957600080fd5b50610a32611a4f565b6040518082815260200191505060405180910390f35b348015610a5457600080fd5b50610a8160048036036020811015610a6b57600080fd5b8101908080359060200190929190505050611a55565b6040518080602001828103825283818151815260200191508051906020019080838360005b83811015610ac1578082015181840152602081019050610aa6565b50505050905090810190601f168015610aee5780820380516001836020036101000a031916815260200191505b509250505060405180910390f35b348015610b0857600080fd5b50610b11611d26565b6040518080602001828103825283818151815260200191508051906020019080838360005b83811015610b51578082015181840152602081019050610b36565b50505050905090810190601f168015610b7e5780820380516001836020036101000a031916815260200191505b509250505060405180910390f35b348015610b9857600080fd5b50610bfb60048036036040811015610baf57600080fd5b81019080803573ffffffffffffffffffffffffffffffffffffffff169060200190929190803573ffffffffffffffffffffffffffffffffffffffff169060200190929190505050611d46565b60405180821515815260200191505060405180910390f35b348015610c1f57600080fd5b50610c28611dda565b6040518082815260200191505060405180910390f35b348015610c4a57600080fd5b50610c8d60048036036020811015610c6157600080fd5b81019080803573ffffffffffffffffffffffffffffffffffffffff169060200190929190505050612103565b005b6000806000837bffffffffffffffffffffffffffffffffffffffffffffffffffffffff19167bffffffffffffffffffffffffffffffffffffffffffffffffffffffff1916815260200190815260200160002060009054906101000a900460ff169050919050565b606060068054600181600116156101000203166002900480601f016020809104026020016040519081016040528092919081815260200182805460018160011615610100020316600290048015610d8e5780601f10610d6357610100808354040283529160200191610d8e565b820191906000526020600020905b815481529060010190602001808311610d7157829003601f168201915b5050505050905090565b6000610da3826122f8565b610df8576040517f08c379a000000000000000000000000000000000000000000000000000000000815260040180806020018281038252602c81526020018061381c602c913960400191505060405180910390fd5b6004600083815260200190815260200160002060009054906101000a900473ffffffffffffffffffffffffffffffffffffffff169050919050565b6000610e3e82611157565b90508073ffffffffffffffffffffffffffffffffffffffff168373ffffffffffffffffffffffffffffffffffffffff161415610ec5576040517f08c379a00000000000000000000000000000000000000000000000000000000081526004018080602001828103825260218152602001806138a06021913960400191505060405180910390fd5b8073ffffffffffffffffffffffffffffffffffffffff16610ee4612315565b73ffffffffffffffffffffffffffffffffffffffff161480610f135750610f1281610f0d612315565b611d46565b5b610f68576040517f08c379a000000000000000000000000000000000000000000000000000000000815260040180806020018281038252603881526020018061376f6038913960400191505060405180910390fd5b610f72838361231d565b505050565b6000610f8360026123d6565b905090565b610f99610f93612315565b826123eb565b610fee576040517f08c379a00000000000000000000000000000000000000000000000000000000081526004018080602001828103825260318152602001806138c16031913960400191505060405180910390fd5b610ff98383836124df565b505050565b600061105182600160008673ffffffffffffffffffffffffffffffffffffffff1673ffffffffffffffffffffffffffffffffffffffff16815260200190815260200160002061272290919063ffffffff16565b905092915050565b611074838383604051806020016040528060008152506119d7565b505050565b60008061109083600261273c90919063ffffffff16565b50905080915050919050565b6110a4612315565b73ffffffffffffffffffffffffffffffffffffffff166110c2611475565b73ffffffffffffffffffffffffffffffffffffffff161461114b576040517f08c379a00000000000000000000000000000000000000000000000000000000081526004018080602001828103825260208152602001807f4f776e61626c653a2063616c6c6572206973206e6f7420746865206f776e657281525060200191505060405180910390fd5b61115481612768565b50565b6000611187826040518060600160405280602981526020016137d16029913960026127829092919063ffffffff16565b9050919050565b606060098054600181600116156101000203166002900480601f0160208091040260200160405190810160405280929190818152602001828054600181600116156101000203166002900480156112265780601f106111fb57610100808354040283529160200191611226565b820191906000526020600020905b81548152906001019060200180831161120957829003601f168201915b5050505050905090565b60008073ffffffffffffffffffffffffffffffffffffffff168273ffffffffffffffffffffffffffffffffffffffff1614156112b7576040517f08c379a000000000000000000000000000000000000000000000000000000000815260040180806020018281038252602a8152602001806137a7602a913960400191505060405180910390fd5b6112fe600160008473ffffffffffffffffffffffffffffffffffffffff1673ffffffffffffffffffffffffffffffffffffffff1681526020019081526020016000206127a1565b9050919050565b61130d612315565b73ffffffffffffffffffffffffffffffffffffffff1661132b611475565b73ffffffffffffffffffffffffffffffffffffffff16146113b4576040517f08c379a00000000000000000000000000000000000000000000000000000000081526004018080602001828103825260208152602001807f4f776e61626c653a2063616c6c6572206973206e6f7420746865206f776e657281525060200191505060405180910390fd5b600073ffffffffffffffffffffffffffffffffffffffff16600a60009054906101000a900473ffffffffffffffffffffffffffffffffffffffff1673ffffffffffffffffffffffffffffffffffffffff167f8be0079c531659141344cd1fd0a4f28419497f9722a3daafe3b4186f6b6457e060405160405180910390a36000600a60006101000a81548173ffffffffffffffffffffffffffffffffffffffff021916908373ffffffffffffffffffffffffffffffffffffffff160217905550565b6000600a60009054906101000a900473ffffffffffffffffffffffffffffffffffffffff16905090565b606060078054600181600116156101000203166002900480601f0160208091040260200160405190810160405280929190818152602001828054600181600116156101000203166002900480156115375780601f1061150c57610100808354040283529160200191611537565b820191906000526020600020905b81548152906001019060200180831161151a57829003601f168201915b5050505050905090565b611549612315565b73ffffffffffffffffffffffffffffffffffffffff16611567611475565b73ffffffffffffffffffffffffffffffffffffffff16146115f0576040517f08c379a00000000000000000000000000000000000000000000000000000000081526004018080602001828103825260208152602001807f4f776e61626c653a2063616c6c6572206973206e6f7420746865206f776e657281525060200191505060405180910390fd5b80600c60006101000a81548173ffffffffffffffffffffffffffffffffffffffff021916908373ffffffffffffffffffffffffffffffffffffffff16021790555050565b600061163e611dda565b9050600b548211156116b8576040517f08c379a00000000000000000000000000000000000000000000000000000000081526004018080602001828103825260128152602001807f546f6b656e494420697320696e76616c6964000000000000000000000000000081525060200191505060405180910390fd5b8034101561172e576040517f08c379a000000000000000000000000000000000000000000000000000000000815260040180806020018281038252601e8152602001807f436f7374206f66204672657368414650756e6b206973206e6f74206d6574000081525060200191505060405180910390fd5b611737826122f8565b156117aa576040517f08c379a00000000000000000000000000000000000000000000000000000000081526004018080602001828103825260188152602001807f4672657368414650756e6b20616c726561647920736f6c64000000000000000081525060200191505060405180910390fd5b6117b433836127b6565b600c60009054906101000a900473ffffffffffffffffffffffffffffffffffffffff1673ffffffffffffffffffffffffffffffffffffffff166108fc349081150290604051600060405180830381858888f1935050505015801561181c573d6000803e3d6000fd5b505050565b611829612315565b73ffffffffffffffffffffffffffffffffffffffff168273ffffffffffffffffffffffffffffffffffffffff1614156118ca576040517f08c379a00000000000000000000000000000000000000000000000000000000081526004018080602001828103825260198152602001807f4552433732313a20617070726f766520746f2063616c6c65720000000000000081525060200191505060405180910390fd5b80600560006118d7612315565b73ffffffffffffffffffffffffffffffffffffffff1673ffffffffffffffffffffffffffffffffffffffff16815260200190815260200160002060008473ffffffffffffffffffffffffffffffffffffffff1673ffffffffffffffffffffffffffffffffffffffff16815260200190815260200160002060006101000a81548160ff0219169083151502179055508173ffffffffffffffffffffffffffffffffffffffff16611984612315565b73ffffffffffffffffffffffffffffffffffffffff167f17307eab39ab6107e8899845ad3d59bd9653f200f220920489ca2b5937696c318360405180821515815260200191505060405180910390a35050565b6119e86119e2612315565b836123eb565b611a3d576040517f08c379a00000000000000000000000000000000000000000000000000000000081526004018080602001828103825260318152602001806138c16031913960400191505060405180910390fd5b611a49848484846127d4565b50505050565b600b5481565b6060611a60826122f8565b611ab5576040517f08c379a000000000000000000000000000000000000000000000000000000000815260040180806020018281038252602f815260200180613871602f913960400191505060405180910390fd5b6060600860008481526020019081526020016000208054600181600116156101000203166002900480601f016020809104026020016040519081016040528092919081815260200182805460018160011615610100020316600290048015611b5e5780601f10611b3357610100808354040283529160200191611b5e565b820191906000526020600020905b815481529060010190602001808311611b4157829003601f168201915b505050505090506060611b6f61118e565b9050600081511415611b85578192505050611d21565b600082511115611c565780826040516020018083805190602001908083835b60208310611bc75780518252602082019150602081019050602083039250611ba4565b6001836020036101000a03801982511681845116808217855250505050505090500182805190602001908083835b60208310611c185780518252602082019150602081019050602083039250611bf5565b6001836020036101000a0380198251168184511680821785525050505050509050019250505060405160208183030381529060405292505050611d21565b80611c6085612846565b6040516020018083805190602001908083835b60208310611c965780518252602082019150602081019050602083039250611c73565b6001836020036101000a03801982511681845116808217855250505050505090500182805190602001908083835b60208310611ce75780518252602082019150602081019050602083039250611cc4565b6001836020036101000a03801982511681845116808217855250505050505090500192505050604051602081830303815290604052925050505b919050565b60606040518060800160405280604281526020016138f260429139905090565b6000600560008473ffffffffffffffffffffffffffffffffffffffff1673ffffffffffffffffffffffffffffffffffffffff16815260200190815260200160002060008373ffffffffffffffffffffffffffffffffffffffff1673ffffffffffffffffffffffffffffffffffffffff16815260200190815260200160002060009054906101000a900460ff16905092915050565b600080611de5610f77565b90506000601e8211611dfa57600090506120fb565b601e82118015611e0c575061012b8211155b15611e2057662386f26fc1000090506120fa565b61012b82118015611e33575061031f8211155b15611e475766470de4df82000090506120f9565b61031f82118015611e5a57506105db8211155b15611e6e57666a94d74f43000090506120f8565b6105db82118015611e8157506108fb8211155b15611e9557668e1bc9bf04000090506120f7565b6108fb82118015611ea85750610bb78211155b15611ebc5766b1a2bc2ec5000090506120f6565b610bb782118015611ecf5750610e738211155b15611ee45767016345785d8a000090506120f5565b610e7382118015611ef7575061112f8211155b15611f0c57670186cc6acd4b000090506120f4565b61112f82118015611f1f57506113eb8211155b15611f34576701aa535d3d0c000090506120f3565b6113eb82118015611f4757506116a78211155b15611f5c576701cdda4faccd000090506120f2565b6116a782118015611f6f57506119638211155b15611f84576701f161421c8e000090506120f1565b61196382118015611f975750611c1f8211155b15611fac576703e2c284391c000090506120f0565b611c1f82118015611fbf5750611edb8211155b15611fd4576704064976a8dd000090506120ef565b611edb82118015611fe757506121978211155b15611ffc57670429d069189e000090506120ee565b6121978211801561200f57506124538211155b156120245767044d575b885f000090506120ed565b61245382118015612037575061270f8211155b1561204c57670470de4df820000090506120ec565b61270f8211801561205f57506129cb8211155b15612074576708e1bc9bf040000090506120eb565b6129cb821180156120875750612c878211155b1561209c57670905438e6001000090506120ea565b612c87821180156120af5750612f438211155b156120c457670928ca80cfc2000090506120e9565b612f43821180156120d757506130d48211155b156120e857670b84c09a3b93000090505b5b5b5b5b5b5b5b5b5b5b5b5b5b5b5b5b5b5b5b809250505090565b61210b612315565b73ffffffffffffffffffffffffffffffffffffffff16612129611475565b73ffffffffffffffffffffffffffffffffffffffff16146121b2576040517f08c379a00000000000000000000000000000000000000000000000000000000081526004018080602001828103825260208152602001807f4f776e61626c653a2063616c6c6572206973206e6f7420746865206f776e657281525060200191505060405180910390fd5b600073ffffffffffffffffffffffffffffffffffffffff168173ffffffffffffffffffffffffffffffffffffffff161415612238576040517f08c379a00000000000000000000000000000000000000000000000000000000081526004018080602001828103825260268152602001806136d36026913960400191505060405180910390fd5b8073ffffffffffffffffffffffffffffffffffffffff16600a60009054906101000a900473ffffffffffffffffffffffffffffffffffffffff1673ffffffffffffffffffffffffffffffffffffffff167f8be0079c531659141344cd1fd0a4f28419497f9722a3daafe3b4186f6b6457e060405160405180910390a380600a60006101000a81548173ffffffffffffffffffffffffffffffffffffffff021916908373ffffffffffffffffffffffffffffffffffffffff16021790555050565b600061230e82600261298d90919063ffffffff16565b9050919050565b600033905090565b816004600083815260200190815260200160002060006101000a81548173ffffffffffffffffffffffffffffffffffffffff021916908373ffffffffffffffffffffffffffffffffffffffff160217905550808273ffffffffffffffffffffffffffffffffffffffff1661239083611157565b73ffffffffffffffffffffffffffffffffffffffff167f8c5be1e5ebec7d5bd14f71427d1e84f3dd0314c0f7b2291e5b200ac8c7c3b92560405160405180910390a45050565b60006123e4826000016129a7565b9050919050565b60006123f6826122f8565b61244b576040517f08c379a000000000000000000000000000000000000000000000000000000000815260040180806020018281038252602c815260200180613743602c913960400191505060405180910390fd5b600061245683611157565b90508073ffffffffffffffffffffffffffffffffffffffff168473ffffffffffffffffffffffffffffffffffffffff1614806124c557508373ffffffffffffffffffffffffffffffffffffffff166124ad84610d98565b73ffffffffffffffffffffffffffffffffffffffff16145b806124d657506124d58185611d46565b5b91505092915050565b8273ffffffffffffffffffffffffffffffffffffffff166124ff82611157565b73ffffffffffffffffffffffffffffffffffffffff161461256b576040517f08c379a00000000000000000000000000000000000000000000000000000000081526004018080602001828103825260298152602001806138486029913960400191505060405180910390fd5b600073ffffffffffffffffffffffffffffffffffffffff168273ffffffffffffffffffffffffffffffffffffffff1614156125f1576040517f08c379a00000000000000000000000000000000000000000000000000000000081526004018080602001828103825260248152602001806136f96024913960400191505060405180910390fd5b6125fc8383836129b8565b61260760008261231d565b61265881600160008673ffffffffffffffffffffffffffffffffffffffff1673ffffffffffffffffffffffffffffffffffffffff1681526020019081526020016000206129bd90919063ffffffff16565b506126aa81600160008573ffffffffffffffffffffffffffffffffffffffff1673ffffffffffffffffffffffffffffffffffffffff1681526020019081526020016000206129d790919063ffffffff16565b506126c1818360026129f19092919063ffffffff16565b50808273ffffffffffffffffffffffffffffffffffffffff168473ffffffffffffffffffffffffffffffffffffffff167fddf252ad1be2c89b69c2b068fc378daa952ba7f163c4a11628f55a4df523b3ef60405160405180910390a4505050565b60006127318360000183612a26565b60001c905092915050565b60008060008061274f8660000186612aa9565b915091508160001c8160001c9350935050509250929050565b806009908051906020019061277e9291906135e1565b5050565b6000612795846000018460001b84612b42565b60001c90509392505050565b60006127af82600001612c38565b9050919050565b6127d0828260405180602001604052806000815250612c49565b5050565b6127df8484846124df565b6127eb84848484612cba565b612840576040517f08c379a00000000000000000000000000000000000000000000000000000000081526004018080602001828103825260328152602001806136a16032913960400191505060405180910390fd5b50505050565b6060600082141561288e576040518060400160405280600181526020017f30000000000000000000000000000000000000000000000000000000000000008152509050612988565b600082905060005b600082146128b8578080600101915050600a82816128b057fe5b049150612896565b60608167ffffffffffffffff811180156128d157600080fd5b506040519080825280601f01601f1916602001820160405280156129045781602001600182028036833780820191505090505b50905060006001830390508593505b6000841461298057600a848161292557fe5b0660300160f81b8282806001900393508151811061293f57fe5b60200101907effffffffffffffffffffffffffffffffffffffffffffffffffffffffffffff1916908160001a905350600a848161297857fe5b049350612913565b819450505050505b919050565b600061299f836000018360001b612ed3565b905092915050565b600081600001805490509050919050565b505050565b60006129cf836000018360001b612ef6565b905092915050565b60006129e9836000018360001b612fde565b905092915050565b6000612a1d846000018460001b8473ffffffffffffffffffffffffffffffffffffffff1660001b61304e565b90509392505050565b600081836000018054905011612a87576040517f08c379a000000000000000000000000000000000000000000000000000000000815260040180806020018281038252602281526020018061367f6022913960400191505060405180910390fd5b826000018281548110612a9657fe5b9060005260206000200154905092915050565b60008082846000018054905011612b0b576040517f08c379a00000000000000000000000000000000000000000000000000000000081526004018080602001828103825260228152602001806137fa6022913960400191505060405180910390fd5b6000846000018481548110612b1c57fe5b906000526020600020906002020190508060000154816001015492509250509250929050565b60008084600101600085815260200190815260200160002054905060008114158390612c09576040517f08c379a00000000000000000000000000000000000000000000000000000000081526004018080602001828103825283818151815260200191508051906020019080838360005b83811015612bce578082015181840152602081019050612bb3565b50505050905090810190601f168015612bfb5780820380516001836020036101000a031916815260200191505b509250505060405180910390fd5b50846000016001820381548110612c1c57fe5b9060005260206000209060020201600101549150509392505050565b600081600001805490509050919050565b612c53838361312a565b612c606000848484612cba565b612cb5576040517f08c379a00000000000000000000000000000000000000000000000000000000081526004018080602001828103825260328152602001806136a16032913960400191505060405180910390fd5b505050565b6000612cdb8473ffffffffffffffffffffffffffffffffffffffff1661331e565b612ce85760019050612ecb565b6060612e5263150b7a0260e01b612cfd612315565b888787604051602401808573ffffffffffffffffffffffffffffffffffffffff1681526020018473ffffffffffffffffffffffffffffffffffffffff16815260200183815260200180602001828103825283818151815260200191508051906020019080838360005b83811015612d81578082015181840152602081019050612d66565b50505050905090810190601f168015612dae5780820380516001836020036101000a031916815260200191505b5095505050505050604051602081830303815290604052907bffffffffffffffffffffffffffffffffffffffffffffffffffffffff19166020820180517bffffffffffffffffffffffffffffffffffffffffffffffffffffffff83818316178352505050506040518060600160405280603281526020016136a1603291398773ffffffffffffffffffffffffffffffffffffffff166133319092919063ffffffff16565b90506000818060200190516020811015612e6b57600080fd5b8101908080519060200190929190505050905063150b7a0260e01b7bffffffffffffffffffffffffffffffffffffffffffffffffffffffff1916817bffffffffffffffffffffffffffffffffffffffffffffffffffffffff191614925050505b949350505050565b600080836001016000848152602001908152602001600020541415905092915050565b60008083600101600084815260200190815260200160002054905060008114612fd25760006001820390506000600186600001805490500390506000866000018281548110612f4157fe5b9060005260206000200154905080876000018481548110612f5e57fe5b9060005260206000200181905550600183018760010160008381526020019081526020016000208190555086600001805480612f9657fe5b60019003818190600052602060002001600090559055866001016000878152602001908152602001600020600090556001945050505050612fd8565b60009150505b92915050565b6000612fea8383613349565b613043578260000182908060018154018082558091505060019003906000526020600020016000909190919091505582600001805490508360010160008481526020019081526020016000208190555060019050613048565b600090505b92915050565b60008084600101600085815260200190815260200160002054905060008114156130f557846000016040518060400160405280868152602001858152509080600181540180825580915050600190039060005260206000209060020201600090919091909150600082015181600001556020820151816001015550508460000180549050856001016000868152602001908152602001600020819055506001915050613123565b8285600001600183038154811061310857fe5b90600052602060002090600202016001018190555060009150505b9392505050565b600073ffffffffffffffffffffffffffffffffffffffff168273ffffffffffffffffffffffffffffffffffffffff1614156131cd576040517f08c379a00000000000000000000000000000000000000000000000000000000081526004018080602001828103825260208152602001807f4552433732313a206d696e7420746f20746865207a65726f206164647265737381525060200191505060405180910390fd5b6131d6816122f8565b15613249576040517f08c379a000000000000000000000000000000000000000000000000000000000815260040180806020018281038252601c8152602001807f4552433732313a20746f6b656e20616c7265616479206d696e7465640000000081525060200191505060405180910390fd5b613255600083836129b8565b6132a681600160008573ffffffffffffffffffffffffffffffffffffffff1673ffffffffffffffffffffffffffffffffffffffff1681526020019081526020016000206129d790919063ffffffff16565b506132bd818360026129f19092919063ffffffff16565b50808273ffffffffffffffffffffffffffffffffffffffff16600073ffffffffffffffffffffffffffffffffffffffff167fddf252ad1be2c89b69c2b068fc378daa952ba7f163c4a11628f55a4df523b3ef60405160405180910390a45050565b600080823b905060008111915050919050565b6060613340848460008561336c565b90509392505050565b600080836001016000848152602001908152602001600020541415905092915050565b6060824710156133c7576040517f08c379a000000000000000000000000000000000000000000000000000000000815260040180806020018281038252602681526020018061371d6026913960400191505060405180910390fd5b6133d08561331e565b613442576040517f08c379a000000000000000000000000000000000000000000000000000000000815260040180806020018281038252601d8152602001807f416464726573733a2063616c6c20746f206e6f6e2d636f6e747261637400000081525060200191505060405180910390fd5b600060608673ffffffffffffffffffffffffffffffffffffffff1685876040518082805190602001908083835b60208310613492578051825260208201915060208101905060208303925061346f565b6001836020036101000a03801982511681845116808217855250505050505090500191505060006040518083038185875af1925050503d80600081146134f4576040519150601f19603f3d011682016040523d82523d6000602084013e6134f9565b606091505b5091509150613509828286613515565b92505050949350505050565b60608315613525578290506135da565b6000835111156135385782518084602001fd5b816040517f08c379a00000000000000000000000000000000000000000000000000000000081526004018080602001828103825283818151815260200191508051906020019080838360005b8381101561359f578082015181840152602081019050613584565b50505050905090810190601f1680156135cc5780820380516001836020036101000a031916815260200191505b509250505060405180910390fd5b9392505050565b828054600181600116156101000203166002900490600052602060002090601f016020900481019282601f1061362257805160ff1916838001178555613650565b82800160010185558215613650579182015b8281111561364f578251825591602001919060010190613634565b5b50905061365d9190613661565b5090565b5b8082111561367a576000816000905550600101613662565b509056fe456e756d657261626c655365743a20696e646578206f7574206f6620626f756e64734552433732313a207472616e7366657220746f206e6f6e20455243373231526563656976657220696d706c656d656e7465724f776e61626c653a206e6577206f776e657220697320746865207a65726f20616464726573734552433732313a207472616e7366657220746f20746865207a65726f2061646472657373416464726573733a20696e73756666696369656e742062616c616e636520666f722063616c6c4552433732313a206f70657261746f7220717565727920666f72206e6f6e6578697374656e7420746f6b656e4552433732313a20617070726f76652063616c6c6572206973206e6f74206f776e6572206e6f7220617070726f76656420666f7220616c6c4552433732313a2062616c616e636520717565727920666f7220746865207a65726f20616464726573734552433732313a206f776e657220717565727920666f72206e6f6e6578697374656e7420746f6b656e456e756d657261626c654d61703a20696e646578206f7574206f6620626f756e64734552433732313a20617070726f76656420717565727920666f72206e6f6e6578697374656e7420746f6b656e4552433732313a207472616e73666572206f6620746f6b656e2074686174206973206e6f74206f776e4552433732314d657461646174613a2055524920717565727920666f72206e6f6e6578697374656e7420746f6b656e4552433732313a20617070726f76616c20746f2063757272656e74206f776e65724552433732313a207472616e736665722063616c6c6572206973206e6f74206f776e6572206e6f7220617070726f76656468747470733a2f2f6672657368616670756e6b732d6d657461646174612d6170692e6865726f6b756170702e636f6d2f6170692f73746f72652d6d65746164617461a264697066735822122087fba2c4d6acb4c9560ddd88223c7ee3ca84545252bd744df4d1e2783743470f64736f6c634300060c003368747470733a2f2f6672657368616670756e6b732d6d657461646174612d6170692e6865726f6b756170702e636f6d2f6170692f746f6b656e2f",
  "immutableReferences": {},
  "source": "// SPDX-License-Identifier: MIT\r\npragma solidity ^0.6.0;\r\n\r\nimport \"@openzeppelin/contracts/token/ERC721/ERC721.sol\";\r\nimport \"@openzeppelin/contracts/access/Ownable.sol\";\r\n\r\ncontract FreshAFPunks is ERC721, Ownable {\r\n    uint256 public hardLimit;\r\n    address payable wallet;\r\n\r\n    constructor(address payable _wallet) ERC721(\"FreshAFPunks\", \"FRESHAF\") public {\r\n        wallet = _wallet;\r\n        hardLimit = 12500;\r\n        _setBaseURI(\"https://freshafpunks-metadata-api.herokuapp.com/api/token/\");\r\n    }\r\n\r\n    function contractURI() public view returns (string memory) {\r\n        return \"https://freshafpunks-metadata-api.herokuapp.com/api/store-metadata\";\r\n    }\r\n\r\n    function setBaseURI(string memory baseURI) public onlyOwner {\r\n        _setBaseURI(baseURI);\r\n    }\r\n\r\n    function changeWallet(address payable _newWallet) public onlyOwner {\r\n        wallet = _newWallet;\r\n    }\r\n\r\n    function mint(uint tokenID) public payable {\r\n        uint cost = getCurrentPrice();\r\n        \r\n        require(tokenID <= hardLimit, \"TokenID is invalid\");\r\n        require(msg.value >=cost, \"Cost of FreshAFPunk is not met\");\r\n        require(!_exists(tokenID), 'FreshAFPunk already sold');\r\n                        \r\n        _safeMint(msg.sender, tokenID);\r\n        wallet.transfer(msg.value);\r\n    }\r\n\r\n    function getCurrentPrice() public view returns (uint256)  {\r\n        uint256 totalSupply = totalSupply();\r\n        uint price = 0;\r\n\r\n        if(totalSupply <= 30) {\r\n            price = 0.00 ether;\r\n        } else if(totalSupply > 30 && totalSupply <= 299) {\r\n            price = 0.01 ether;\r\n        } else if(totalSupply > 299 && totalSupply <= 799) {\r\n            price = 0.02 ether;\r\n        } else if(totalSupply > 799 && totalSupply <= 1499) {\r\n            price = 0.03 ether;\r\n        } else if(totalSupply > 1499 && totalSupply <= 2299) {\r\n            price = 0.04 ether;\r\n        }  else if(totalSupply > 2299 && totalSupply <= 2999) {\r\n            price = 0.05 ether;\r\n        }  else if(totalSupply > 2999 && totalSupply <= 3699) {\r\n            price = 0.10 ether;\r\n        } else if(totalSupply > 3699 && totalSupply <= 4399) {\r\n            price = 0.11 ether;\r\n        } else if(totalSupply > 4399 && totalSupply <= 5099) {\r\n            price = 0.12 ether;\r\n        } else if(totalSupply > 5099 && totalSupply <= 5799) {\r\n            price = 0.13 ether;\r\n        } else if(totalSupply > 5799 && totalSupply <= 6499) {\r\n            price = 0.14 ether;\r\n        }  else if(totalSupply > 6499 && totalSupply <= 7199) {\r\n            price = 0.28 ether;\r\n        }  else if(totalSupply > 7199 && totalSupply <= 7899) {\r\n            price = 0.29 ether;\r\n        }  else if(totalSupply > 7899 && totalSupply <= 8599) {\r\n            price = 0.30 ether;\r\n        }  else if(totalSupply > 8599 && totalSupply <= 9299) {\r\n            price = 0.31 ether;\r\n        } else if(totalSupply > 9299 && totalSupply <= 9999) {\r\n            price = 0.32 ether;\r\n        } else if(totalSupply > 9999 && totalSupply <= 10699) {\r\n            price = 0.64 ether;\r\n        } else if(totalSupply > 10699 && totalSupply <= 11399) {\r\n            price = 0.65 ether;\r\n        } else if(totalSupply > 11399 && totalSupply <= 12099) {\r\n            price = 0.66 ether;\r\n        }  else if(totalSupply > 12099 && totalSupply <= 12500) {\r\n            price = 0.83 ether;\r\n        }\r\n\r\n        return price;\r\n    }\r\n\r\n\r\n}",
  "sourcePath": "C:/Users/dev/Desktop/NFTFun/FreshAFPunks/contracts/FreshAFPunks.sol",
  "compiler": {
    "name": "solc",
    "version": "0.6.12+commit.27d51765.Emscripten.clang"
  },
  "schemaVersion": "3.3.4",
  "updatedAt": "2021-03-21T04:42:03.641Z",
  "devdoc": {
    "kind": "dev",
    "methods": {
      "approve(address,uint256)": {
        "details": "See {IERC721-approve}."
      },
      "balanceOf(address)": {
        "details": "See {IERC721-balanceOf}."
      },
      "baseURI()": {
        "details": "Returns the base URI set via {_setBaseURI}. This will be automatically added as a prefix in {tokenURI} to each token's URI, or to the token ID if no specific URI is set for that token ID."
      },
      "getApproved(uint256)": {
        "details": "See {IERC721-getApproved}."
      },
      "isApprovedForAll(address,address)": {
        "details": "See {IERC721-isApprovedForAll}."
      },
      "name()": {
        "details": "See {IERC721Metadata-name}."
      },
      "owner()": {
        "details": "Returns the address of the current owner."
      },
      "ownerOf(uint256)": {
        "details": "See {IERC721-ownerOf}."
      },
      "renounceOwnership()": {
        "details": "Leaves the contract without owner. It will not be possible to call `onlyOwner` functions anymore. Can only be called by the current owner. NOTE: Renouncing ownership will leave the contract without an owner, thereby removing any functionality that is only available to the owner."
      },
      "safeTransferFrom(address,address,uint256)": {
        "details": "See {IERC721-safeTransferFrom}."
      },
      "safeTransferFrom(address,address,uint256,bytes)": {
        "details": "See {IERC721-safeTransferFrom}."
      },
      "setApprovalForAll(address,bool)": {
        "details": "See {IERC721-setApprovalForAll}."
      },
      "supportsInterface(bytes4)": {
        "details": "See {IERC165-supportsInterface}. Time complexity O(1), guaranteed to always use less than 30 000 gas."
      },
      "symbol()": {
        "details": "See {IERC721Metadata-symbol}."
      },
      "tokenByIndex(uint256)": {
        "details": "See {IERC721Enumerable-tokenByIndex}."
      },
      "tokenOfOwnerByIndex(address,uint256)": {
        "details": "See {IERC721Enumerable-tokenOfOwnerByIndex}."
      },
      "tokenURI(uint256)": {
        "details": "See {IERC721Metadata-tokenURI}."
      },
      "totalSupply()": {
        "details": "See {IERC721Enumerable-totalSupply}."
      },
      "transferFrom(address,address,uint256)": {
        "details": "See {IERC721-transferFrom}."
      },
      "transferOwnership(address)": {
        "details": "Transfers ownership of the contract to a new account (`newOwner`). Can only be called by the current owner."
      }
    },
    "version": 1
  },
  "userdoc": {
    "kind": "user",
    "methods": {},
    "version": 1
  }
}