{
  "contractName": "FreshAFPunks",
  "abi": [
    {
      "inputs": [
        {
          "internalType": "address payable",
          "name": "_wallet",
          "type": "address"
        }
      ],
      "stateMutability": "nonpayable",
      "type": "constructor"
    },
    {
      "anonymous": false,
      "inputs": [
        {
          "indexed": true,
          "internalType": "address",
          "name": "owner",
          "type": "address"
        },
        {
          "indexed": true,
          "internalType": "address",
          "name": "approved",
          "type": "address"
        },
        {
          "indexed": true,
          "internalType": "uint256",
          "name": "tokenId",
          "type": "uint256"
        }
      ],
      "name": "Approval",
      "type": "event"
    },
    {
      "anonymous": false,
      "inputs": [
        {
          "indexed": true,
          "internalType": "address",
          "name": "owner",
          "type": "address"
        },
        {
          "indexed": true,
          "internalType": "address",
          "name": "operator",
          "type": "address"
        },
        {
          "indexed": false,
          "internalType": "bool",
          "name": "approved",
          "type": "bool"
        }
      ],
      "name": "ApprovalForAll",
      "type": "event"
    },
    {
      "anonymous": false,
      "inputs": [
        {
          "indexed": true,
          "internalType": "address",
          "name": "from",
          "type": "address"
        },
        {
          "indexed": true,
          "internalType": "address",
          "name": "to",
          "type": "address"
        },
        {
          "indexed": true,
          "internalType": "uint256",
          "name": "tokenId",
          "type": "uint256"
        }
      ],
      "name": "Transfer",
      "type": "event"
    },
    {
      "inputs": [
        {
          "internalType": "address",
          "name": "to",
          "type": "address"
        },
        {
          "internalType": "uint256",
          "name": "tokenId",
          "type": "uint256"
        }
      ],
      "name": "approve",
      "outputs": [],
      "stateMutability": "nonpayable",
      "type": "function"
    },
    {
      "inputs": [
        {
          "internalType": "address",
          "name": "owner",
          "type": "address"
        }
      ],
      "name": "balanceOf",
      "outputs": [
        {
          "internalType": "uint256",
          "name": "",
          "type": "uint256"
        }
      ],
      "stateMutability": "view",
      "type": "function",
      "constant": true
    },
    {
      "inputs": [
        {
          "internalType": "uint256",
          "name": "tokenId",
          "type": "uint256"
        }
      ],
      "name": "getApproved",
      "outputs": [
        {
          "internalType": "address",
          "name": "",
          "type": "address"
        }
      ],
      "stateMutability": "view",
      "type": "function",
      "constant": true
    },
    {
      "inputs": [],
      "name": "hardLimit",
      "outputs": [
        {
          "internalType": "uint256",
          "name": "",
          "type": "uint256"
        }
      ],
      "stateMutability": "view",
      "type": "function",
      "constant": true
    },
    {
      "inputs": [
        {
          "internalType": "address",
          "name": "owner",
          "type": "address"
        },
        {
          "internalType": "address",
          "name": "operator",
          "type": "address"
        }
      ],
      "name": "isApprovedForAll",
      "outputs": [
        {
          "internalType": "bool",
          "name": "",
          "type": "bool"
        }
      ],
      "stateMutability": "view",
      "type": "function",
      "constant": true
    },
    {
      "inputs": [],
      "name": "name",
      "outputs": [
        {
          "internalType": "string",
          "name": "",
          "type": "string"
        }
      ],
      "stateMutability": "view",
      "type": "function",
      "constant": true
    },
    {
      "inputs": [
        {
          "internalType": "uint256",
          "name": "tokenId",
          "type": "uint256"
        }
      ],
      "name": "ownerOf",
      "outputs": [
        {
          "internalType": "address",
          "name": "",
          "type": "address"
        }
      ],
      "stateMutability": "view",
      "type": "function",
      "constant": true
    },
    {
      "inputs": [
        {
          "internalType": "address",
          "name": "from",
          "type": "address"
        },
        {
          "internalType": "address",
          "name": "to",
          "type": "address"
        },
        {
          "internalType": "uint256",
          "name": "tokenId",
          "type": "uint256"
        }
      ],
      "name": "safeTransferFrom",
      "outputs": [],
      "stateMutability": "nonpayable",
      "type": "function"
    },
    {
      "inputs": [
        {
          "internalType": "address",
          "name": "from",
          "type": "address"
        },
        {
          "internalType": "address",
          "name": "to",
          "type": "address"
        },
        {
          "internalType": "uint256",
          "name": "tokenId",
          "type": "uint256"
        },
        {
          "internalType": "bytes",
          "name": "_data",
          "type": "bytes"
        }
      ],
      "name": "safeTransferFrom",
      "outputs": [],
      "stateMutability": "nonpayable",
      "type": "function"
    },
    {
      "inputs": [
        {
          "internalType": "address",
          "name": "operator",
          "type": "address"
        },
        {
          "internalType": "bool",
          "name": "approved",
          "type": "bool"
        }
      ],
      "name": "setApprovalForAll",
      "outputs": [],
      "stateMutability": "nonpayable",
      "type": "function"
    },
    {
      "inputs": [
        {
          "internalType": "bytes4",
          "name": "interfaceId",
          "type": "bytes4"
        }
      ],
      "name": "supportsInterface",
      "outputs": [
        {
          "internalType": "bool",
          "name": "",
          "type": "bool"
        }
      ],
      "stateMutability": "view",
      "type": "function",
      "constant": true
    },
    {
      "inputs": [],
      "name": "symbol",
      "outputs": [
        {
          "internalType": "string",
          "name": "",
          "type": "string"
        }
      ],
      "stateMutability": "view",
      "type": "function",
      "constant": true
    },
    {
      "inputs": [
        {
          "internalType": "uint256",
          "name": "index",
          "type": "uint256"
        }
      ],
      "name": "tokenByIndex",
      "outputs": [
        {
          "internalType": "uint256",
          "name": "",
          "type": "uint256"
        }
      ],
      "stateMutability": "view",
      "type": "function",
      "constant": true
    },
    {
      "inputs": [
        {
          "internalType": "address",
          "name": "owner",
          "type": "address"
        },
        {
          "internalType": "uint256",
          "name": "index",
          "type": "uint256"
        }
      ],
      "name": "tokenOfOwnerByIndex",
      "outputs": [
        {
          "internalType": "uint256",
          "name": "",
          "type": "uint256"
        }
      ],
      "stateMutability": "view",
      "type": "function",
      "constant": true
    },
    {
      "inputs": [
        {
          "internalType": "uint256",
          "name": "tokenId",
          "type": "uint256"
        }
      ],
      "name": "tokenURI",
      "outputs": [
        {
          "internalType": "string",
          "name": "",
          "type": "string"
        }
      ],
      "stateMutability": "view",
      "type": "function",
      "constant": true
    },
    {
      "inputs": [],
      "name": "totalSupply",
      "outputs": [
        {
          "internalType": "uint256",
          "name": "",
          "type": "uint256"
        }
      ],
      "stateMutability": "view",
      "type": "function",
      "constant": true
    },
    {
      "inputs": [
        {
          "internalType": "address",
          "name": "from",
          "type": "address"
        },
        {
          "internalType": "address",
          "name": "to",
          "type": "address"
        },
        {
          "internalType": "uint256",
          "name": "tokenId",
          "type": "uint256"
        }
      ],
      "name": "transferFrom",
      "outputs": [],
      "stateMutability": "nonpayable",
      "type": "function"
    },
    {
      "inputs": [],
      "name": "contractURI",
      "outputs": [
        {
          "internalType": "string",
          "name": "",
          "type": "string"
        }
      ],
      "stateMutability": "pure",
      "type": "function",
      "constant": true
    },
    {
      "inputs": [
        {
          "internalType": "uint256[]",
          "name": "tokenIDs",
          "type": "uint256[]"
        }
      ],
      "name": "mint",
      "outputs": [],
      "stateMutability": "payable",
      "type": "function",
      "payable": true
    },
    {
      "inputs": [],
      "name": "getCurrentPrice",
      "outputs": [
        {
          "internalType": "uint256",
          "name": "",
          "type": "uint256"
        }
      ],
      "stateMutability": "view",
      "type": "function",
      "constant": true
    }
  ],
  "bytecode": "0x60806040523480156200001157600080fd5b5060405162003c3738038062003c378339818101604052810190620000379190620001ef565b6040518060400160405280600c81526020017f4672657368414650756e6b7300000000000000000000000000000000000000008152506040518060400160405280600781526020017f46524553484146000000000000000000000000000000000000000000000000008152508160009080519060200190620000bb92919062000128565b508060019080519060200190620000d492919062000128565b50505080600b60006101000a81548173ffffffffffffffffffffffffffffffffffffffff021916908373ffffffffffffffffffffffffffffffffffffffff1602179055506130d4600a8190555050620002ce565b82805462000136906200024f565b90600052602060002090601f0160209004810192826200015a5760008555620001a6565b82601f106200017557805160ff1916838001178555620001a6565b82800160010185558215620001a6579182015b82811115620001a557825182559160200191906001019062000188565b5b509050620001b59190620001b9565b5090565b5b80821115620001d4576000816000905550600101620001ba565b5090565b600081519050620001e981620002b4565b92915050565b6000602082840312156200020257600080fd5b60006200021284828501620001d8565b91505092915050565b600062000228826200022f565b9050919050565b600073ffffffffffffffffffffffffffffffffffffffff82169050919050565b600060028204905060018216806200026857607f821691505b602082108114156200027f576200027e62000285565b5b50919050565b7f4e487b7100000000000000000000000000000000000000000000000000000000600052602260045260246000fd5b620002bf816200021b565b8114620002cb57600080fd5b50565b61395980620002de6000396000f3fe60806040526004361061011f5760003560e01c806370a08231116100a0578063c87b56dd11610064578063c87b56dd1461040b578063e8a3d48514610448578063e985e9c514610473578063eb91d37e146104b0578063f8e93ef9146104db5761011f565b806370a082311461032657806395d89b4114610363578063a22cb4651461038e578063b88d4fde146103b7578063c41f6d5f146103e05761011f565b806323b872dd116100e757806323b872dd1461021d5780632f745c591461024657806342842e0e146102835780634f6ccce7146102ac5780636352211e146102e95761011f565b806301ffc9a71461012457806306fdde0314610161578063081812fc1461018c578063095ea7b3146101c957806318160ddd146101f2575b600080fd5b34801561013057600080fd5b5061014b600480360381019061014691906127f2565b6104f7565b6040516101589190612c61565b60405180910390f35b34801561016d57600080fd5b50610176610571565b6040516101839190612c7c565b60405180910390f35b34801561019857600080fd5b506101b360048036038101906101ae9190612844565b610603565b6040516101c09190612bfa565b60405180910390f35b3480156101d557600080fd5b506101f060048036038101906101eb9190612775565b610688565b005b3480156101fe57600080fd5b506102076107a0565b6040516102149190612efe565b60405180910390f35b34801561022957600080fd5b50610244600480360381019061023f919061266f565b6107ad565b005b34801561025257600080fd5b5061026d60048036038101906102689190612775565b61080d565b60405161027a9190612efe565b60405180910390f35b34801561028f57600080fd5b506102aa60048036038101906102a5919061266f565b6108b2565b005b3480156102b857600080fd5b506102d360048036038101906102ce9190612844565b6108d2565b6040516102e09190612efe565b60405180910390f35b3480156102f557600080fd5b50610310600480360381019061030b9190612844565b610969565b60405161031d9190612bfa565b60405180910390f35b34801561033257600080fd5b5061034d6004803603810190610348919061260a565b610a1b565b60405161035a9190612efe565b60405180910390f35b34801561036f57600080fd5b50610378610ad3565b6040516103859190612c7c565b60405180910390f35b34801561039a57600080fd5b506103b560048036038101906103b09190612739565b610b65565b005b3480156103c357600080fd5b506103de60048036038101906103d991906126be565b610ce6565b005b3480156103ec57600080fd5b506103f5610d48565b6040516104029190612efe565b60405180910390f35b34801561041757600080fd5b50610432600480360381019061042d9190612844565b610d4e565b60405161043f9190612c7c565b60405180910390f35b34801561045457600080fd5b5061045d610df5565b60405161046a9190612c7c565b60405180910390f35b34801561047f57600080fd5b5061049a60048036038101906104959190612633565b610e15565b6040516104a79190612c61565b60405180910390f35b3480156104bc57600080fd5b506104c5610ea9565b6040516104d29190612efe565b60405180910390f35b6104f560048036038101906104f091906127b1565b6111bc565b005b60007f780e9d63000000000000000000000000000000000000000000000000000000007bffffffffffffffffffffffffffffffffffffffffffffffffffffffff1916827bffffffffffffffffffffffffffffffffffffffffffffffffffffffff1916148061056a575061056982611445565b5b9050919050565b606060008054610580906131a9565b80601f01602080910402602001604051908101604052809291908181526020018280546105ac906131a9565b80156105f95780601f106105ce576101008083540402835291602001916105f9565b820191906000526020600020905b8154815290600101906020018083116105dc57829003601f168201915b5050505050905090565b600061060e82611527565b61064d576040517f08c379a000000000000000000000000000000000000000000000000000000000815260040161064490612e1e565b60405180910390fd5b6004600083815260200190815260200160002060009054906101000a900473ffffffffffffffffffffffffffffffffffffffff169050919050565b600061069382610969565b90508073ffffffffffffffffffffffffffffffffffffffff168373ffffffffffffffffffffffffffffffffffffffff161415610704576040517f08c379a00000000000000000000000000000000000000000000000000000000081526004016106fb90612e7e565b60405180910390fd5b8073ffffffffffffffffffffffffffffffffffffffff16610723611593565b73ffffffffffffffffffffffffffffffffffffffff16148061075257506107518161074c611593565b610e15565b5b610791576040517f08c379a000000000000000000000000000000000000000000000000000000000815260040161078890612d7e565b60405180910390fd5b61079b838361159b565b505050565b6000600880549050905090565b6107be6107b8611593565b82611654565b6107fd576040517f08c379a00000000000000000000000000000000000000000000000000000000081526004016107f490612e9e565b60405180910390fd5b610808838383611732565b505050565b600061081883610a1b565b8210610859576040517f08c379a000000000000000000000000000000000000000000000000000000000815260040161085090612c9e565b60405180910390fd5b600660008473ffffffffffffffffffffffffffffffffffffffff1673ffffffffffffffffffffffffffffffffffffffff168152602001908152602001600020600083815260200190815260200160002054905092915050565b6108cd83838360405180602001604052806000815250610ce6565b505050565b60006108dc6107a0565b821061091d576040517f08c379a000000000000000000000000000000000000000000000000000000000815260040161091490612ebe565b60405180910390fd5b60088281548110610957577f4e487b7100000000000000000000000000000000000000000000000000000000600052603260045260246000fd5b90600052602060002001549050919050565b6000806002600084815260200190815260200160002060009054906101000a900473ffffffffffffffffffffffffffffffffffffffff169050600073ffffffffffffffffffffffffffffffffffffffff168173ffffffffffffffffffffffffffffffffffffffff161415610a12576040517f08c379a0000000000000000000000000000000000000000000000000000000008152600401610a0990612dbe565b60405180910390fd5b80915050919050565b60008073ffffffffffffffffffffffffffffffffffffffff168273ffffffffffffffffffffffffffffffffffffffff161415610a8c576040517f08c379a0000000000000000000000000000000000000000000000000000000008152600401610a8390612d9e565b60405180910390fd5b600360008373ffffffffffffffffffffffffffffffffffffffff1673ffffffffffffffffffffffffffffffffffffffff168152602001908152602001600020549050919050565b606060018054610ae2906131a9565b80601f0160208091040260200160405190810160405280929190818152602001828054610b0e906131a9565b8015610b5b5780601f10610b3057610100808354040283529160200191610b5b565b820191906000526020600020905b815481529060010190602001808311610b3e57829003601f168201915b5050505050905090565b610b6d611593565b73ffffffffffffffffffffffffffffffffffffffff168273ffffffffffffffffffffffffffffffffffffffff161415610bdb576040517f08c379a0000000000000000000000000000000000000000000000000000000008152600401610bd290612d3e565b60405180910390fd5b8060056000610be8611593565b73ffffffffffffffffffffffffffffffffffffffff1673ffffffffffffffffffffffffffffffffffffffff16815260200190815260200160002060008473ffffffffffffffffffffffffffffffffffffffff1673ffffffffffffffffffffffffffffffffffffffff16815260200190815260200160002060006101000a81548160ff0219169083151502179055508173ffffffffffffffffffffffffffffffffffffffff16610c95611593565b73ffffffffffffffffffffffffffffffffffffffff167f17307eab39ab6107e8899845ad3d59bd9653f200f220920489ca2b5937696c3183604051610cda9190612c61565b60405180910390a35050565b610cf7610cf1611593565b83611654565b610d36576040517f08c379a0000000000000000000000000000000000000000000000000000000008152600401610d2d90612e9e565b60405180910390fd5b610d428484848461198e565b50505050565b600a5481565b6060610d5982611527565b610d98576040517f08c379a0000000000000000000000000000000000000000000000000000000008152600401610d8f90612e5e565b60405180910390fd5b6000610da26119ea565b90506000815111610dc25760405180602001604052806000815250610ded565b80610dcc84611a0a565b604051602001610ddd929190612bd6565b6040516020818303038152906040525b915050919050565b60606040518060800160405280604281526020016138e260429139905090565b6000600560008473ffffffffffffffffffffffffffffffffffffffff1673ffffffffffffffffffffffffffffffffffffffff16815260200190815260200160002060008373ffffffffffffffffffffffffffffffffffffffff1673ffffffffffffffffffffffffffffffffffffffff16815260200190815260200160002060009054906101000a900460ff16905092915050565b600080610eb46107a0565b905061012b8111610ecf57662386f26fc100009150506111b9565b61012b81118015610ee2575061031f8111155b15610ef75766470de4df8200009150506111b9565b61031f81118015610f0a57506105db8111155b15610f1f57666a94d74f4300009150506111b9565b6105db81118015610f3257506108fb8111155b15610f4757668e1bc9bf0400009150506111b9565b6108fb81118015610f5a5750610bb78111155b15610f6f5766b1a2bc2ec500009150506111b9565b610bb781118015610f825750610e738111155b15610f985767016345785d8a00009150506111b9565b610e7381118015610fab575061112f8111155b15610fc157670186cc6acd4b00009150506111b9565b61112f81118015610fd457506113eb8111155b15610fea576701aa535d3d0c00009150506111b9565b6113eb81118015610ffd57506116a78111155b15611013576701cdda4faccd00009150506111b9565b6116a78111801561102657506119638111155b1561103c576701f161421c8e00009150506111b9565b6119638111801561104f5750611c1f8111155b15611065576703e2c284391c00009150506111b9565b611c1f811180156110785750611edb8111155b1561108e576704064976a8dd00009150506111b9565b611edb811180156110a157506121978111155b156110b757670429d069189e00009150506111b9565b612197811180156110ca57506124538111155b156110e05767044d575b885f00009150506111b9565b612453811180156110f3575061270f8111155b1561110957670470de4df82000009150506111b9565b61270f8111801561111c57506129cb8111155b15611132576708e1bc9bf04000009150506111b9565b6129cb811180156111455750612c878111155b1561115b57670905438e600100009150506111b9565b612c878111801561116e5750612f438111155b1561118457670928ca80cfc200009150506111b9565b612f438111801561119757506130d48111155b156111ad57670b84c09a3b9300009150506111b9565b662386f26fc100009150505b90565b600a5481516111c96107a0565b6111d39190612fde565b1115611214576040517f08c379a000000000000000000000000000000000000000000000000000000000815260040161120b90612ede565b60405180910390fd5b600b60009054906101000a900473ffffffffffffffffffffffffffffffffffffffff1673ffffffffffffffffffffffffffffffffffffffff163373ffffffffffffffffffffffffffffffffffffffff16146112c65760008151611275610ea9565b61127f9190613065565b9050803410156112c4576040517f08c379a00000000000000000000000000000000000000000000000000000000081526004016112bb90612dde565b60405180910390fd5b505b60005b815181101561136e5761131b82828151811061130e577f4e487b7100000000000000000000000000000000000000000000000000000000600052603260045260246000fd5b6020026020010151611527565b1561135b576040517f08c379a000000000000000000000000000000000000000000000000000000000815260040161135290612cbe565b60405180910390fd5b80806113669061320c565b9150506112c9565b5060005b81518110156113d8576113c5338383815181106113b8577f4e487b7100000000000000000000000000000000000000000000000000000000600052603260045260246000fd5b6020026020010151611bb7565b80806113d09061320c565b915050611372565b50600b60009054906101000a900473ffffffffffffffffffffffffffffffffffffffff1673ffffffffffffffffffffffffffffffffffffffff166108fc349081150290604051600060405180830381858888f19350505050158015611441573d6000803e3d6000fd5b5050565b60007f80ac58cd000000000000000000000000000000000000000000000000000000007bffffffffffffffffffffffffffffffffffffffffffffffffffffffff1916827bffffffffffffffffffffffffffffffffffffffffffffffffffffffff1916148061151057507f5b5e139f000000000000000000000000000000000000000000000000000000007bffffffffffffffffffffffffffffffffffffffffffffffffffffffff1916827bffffffffffffffffffffffffffffffffffffffffffffffffffffffff1916145b80611520575061151f82611bd5565b5b9050919050565b60008073ffffffffffffffffffffffffffffffffffffffff166002600084815260200190815260200160002060009054906101000a900473ffffffffffffffffffffffffffffffffffffffff1673ffffffffffffffffffffffffffffffffffffffff1614159050919050565b600033905090565b816004600083815260200190815260200160002060006101000a81548173ffffffffffffffffffffffffffffffffffffffff021916908373ffffffffffffffffffffffffffffffffffffffff160217905550808273ffffffffffffffffffffffffffffffffffffffff1661160e83610969565b73ffffffffffffffffffffffffffffffffffffffff167f8c5be1e5ebec7d5bd14f71427d1e84f3dd0314c0f7b2291e5b200ac8c7c3b92560405160405180910390a45050565b600061165f82611527565b61169e576040517f08c379a000000000000000000000000000000000000000000000000000000000815260040161169590612d5e565b60405180910390fd5b60006116a983610969565b90508073ffffffffffffffffffffffffffffffffffffffff168473ffffffffffffffffffffffffffffffffffffffff16148061171857508373ffffffffffffffffffffffffffffffffffffffff1661170084610603565b73ffffffffffffffffffffffffffffffffffffffff16145b8061172957506117288185610e15565b5b91505092915050565b8273ffffffffffffffffffffffffffffffffffffffff1661175282610969565b73ffffffffffffffffffffffffffffffffffffffff16146117a8576040517f08c379a000000000000000000000000000000000000000000000000000000000815260040161179f90612e3e565b60405180910390fd5b600073ffffffffffffffffffffffffffffffffffffffff168273ffffffffffffffffffffffffffffffffffffffff161415611818576040517f08c379a000000000000000000000000000000000000000000000000000000000815260040161180f90612d1e565b60405180910390fd5b611823838383611c3f565b61182e60008261159b565b6001600360008573ffffffffffffffffffffffffffffffffffffffff1673ffffffffffffffffffffffffffffffffffffffff168152602001908152602001600020600082825461187e91906130bf565b925050819055506001600360008473ffffffffffffffffffffffffffffffffffffffff1673ffffffffffffffffffffffffffffffffffffffff16815260200190815260200160002060008282546118d59190612fde565b92505081905550816002600083815260200190815260200160002060006101000a81548173ffffffffffffffffffffffffffffffffffffffff021916908373ffffffffffffffffffffffffffffffffffffffff160217905550808273ffffffffffffffffffffffffffffffffffffffff168473ffffffffffffffffffffffffffffffffffffffff167fddf252ad1be2c89b69c2b068fc378daa952ba7f163c4a11628f55a4df523b3ef60405160405180910390a4505050565b611999848484611732565b6119a584848484611d53565b6119e4576040517f08c379a00000000000000000000000000000000000000000000000000000000081526004016119db90612cde565b60405180910390fd5b50505050565b60606040518060600160405280603981526020016138a960399139905090565b60606000821415611a52576040518060400160405280600181526020017f30000000000000000000000000000000000000000000000000000000000000008152509050611bb2565b600082905060005b60008214611a84578080611a6d9061320c565b915050600a82611a7d9190613034565b9150611a5a565b60008167ffffffffffffffff811115611ac6577f4e487b7100000000000000000000000000000000000000000000000000000000600052604160045260246000fd5b6040519080825280601f01601f191660200182016040528015611af85781602001600182028036833780820191505090505b5090505b60008514611bab57600182611b1191906130bf565b9150600a85611b209190613255565b6030611b2c9190612fde565b60f81b818381518110611b68577f4e487b7100000000000000000000000000000000000000000000000000000000600052603260045260246000fd5b60200101907effffffffffffffffffffffffffffffffffffffffffffffffffffffffffffff1916908160001a905350600a85611ba49190613034565b9450611afc565b8093505050505b919050565b611bd1828260405180602001604052806000815250611eea565b5050565b60007f01ffc9a7000000000000000000000000000000000000000000000000000000007bffffffffffffffffffffffffffffffffffffffffffffffffffffffff1916827bffffffffffffffffffffffffffffffffffffffffffffffffffffffff1916149050919050565b611c4a838383611f45565b600073ffffffffffffffffffffffffffffffffffffffff168373ffffffffffffffffffffffffffffffffffffffff161415611c8d57611c8881611f4a565b611ccc565b8173ffffffffffffffffffffffffffffffffffffffff168373ffffffffffffffffffffffffffffffffffffffff1614611ccb57611cca8382611f93565b5b5b600073ffffffffffffffffffffffffffffffffffffffff168273ffffffffffffffffffffffffffffffffffffffff161415611d0f57611d0a81612100565b611d4e565b8273ffffffffffffffffffffffffffffffffffffffff168273ffffffffffffffffffffffffffffffffffffffff1614611d4d57611d4c8282612243565b5b5b505050565b6000611d748473ffffffffffffffffffffffffffffffffffffffff166122c2565b15611edd578373ffffffffffffffffffffffffffffffffffffffff1663150b7a02611d9d611593565b8786866040518563ffffffff1660e01b8152600401611dbf9493929190612c15565b602060405180830381600087803b158015611dd957600080fd5b505af1925050508015611e0a57506040513d601f19601f82011682018060405250810190611e07919061281b565b60015b611e8d573d8060008114611e3a576040519150601f19603f3d011682016040523d82523d6000602084013e611e3f565b606091505b50600081511415611e85576040517f08c379a0000000000000000000000000000000000000000000000000000000008152600401611e7c90612cde565b60405180910390fd5b805181602001fd5b63150b7a0260e01b7bffffffffffffffffffffffffffffffffffffffffffffffffffffffff1916817bffffffffffffffffffffffffffffffffffffffffffffffffffffffff191614915050611ee2565b600190505b949350505050565b611ef483836122d5565b611f016000848484611d53565b611f40576040517f08c379a0000000000000000000000000000000000000000000000000000000008152600401611f3790612cde565b60405180910390fd5b505050565b505050565b6008805490506009600083815260200190815260200160002081905550600881908060018154018082558091505060019003906000526020600020016000909190919091505550565b60006001611fa084610a1b565b611faa91906130bf565b905060006007600084815260200190815260200160002054905081811461208f576000600660008673ffffffffffffffffffffffffffffffffffffffff1673ffffffffffffffffffffffffffffffffffffffff168152602001908152602001600020600084815260200190815260200160002054905080600660008773ffffffffffffffffffffffffffffffffffffffff1673ffffffffffffffffffffffffffffffffffffffff168152602001908152602001600020600084815260200190815260200160002081905550816007600083815260200190815260200160002081905550505b6007600084815260200190815260200160002060009055600660008573ffffffffffffffffffffffffffffffffffffffff1673ffffffffffffffffffffffffffffffffffffffff16815260200190815260200160002060008381526020019081526020016000206000905550505050565b6000600160088054905061211491906130bf565b905060006009600084815260200190815260200160002054905060006008838154811061216a577f4e487b7100000000000000000000000000000000000000000000000000000000600052603260045260246000fd5b9060005260206000200154905080600883815481106121b2577f4e487b7100000000000000000000000000000000000000000000000000000000600052603260045260246000fd5b906000526020600020018190555081600960008381526020019081526020016000208190555060096000858152602001908152602001600020600090556008805480612227577f4e487b7100000000000000000000000000000000000000000000000000000000600052603160045260246000fd5b6001900381819060005260206000200160009055905550505050565b600061224e83610a1b565b905081600660008573ffffffffffffffffffffffffffffffffffffffff1673ffffffffffffffffffffffffffffffffffffffff168152602001908152602001600020600083815260200190815260200160002081905550806007600084815260200190815260200160002081905550505050565b600080823b905060008111915050919050565b600073ffffffffffffffffffffffffffffffffffffffff168273ffffffffffffffffffffffffffffffffffffffff161415612345576040517f08c379a000000000000000000000000000000000000000000000000000000000815260040161233c90612dfe565b60405180910390fd5b61234e81611527565b1561238e576040517f08c379a000000000000000000000000000000000000000000000000000000000815260040161238590612cfe565b60405180910390fd5b61239a60008383611c3f565b6001600360008473ffffffffffffffffffffffffffffffffffffffff1673ffffffffffffffffffffffffffffffffffffffff16815260200190815260200160002060008282546123ea9190612fde565b92505081905550816002600083815260200190815260200160002060006101000a81548173ffffffffffffffffffffffffffffffffffffffff021916908373ffffffffffffffffffffffffffffffffffffffff160217905550808273ffffffffffffffffffffffffffffffffffffffff16600073ffffffffffffffffffffffffffffffffffffffff167fddf252ad1be2c89b69c2b068fc378daa952ba7f163c4a11628f55a4df523b3ef60405160405180910390a45050565b60006124b66124b184612f3e565b612f19565b905080838252602082019050828560208602820111156124d557600080fd5b60005b8581101561250557816124eb88826125f5565b8452602084019350602083019250506001810190506124d8565b5050509392505050565b600061252261251d84612f6a565b612f19565b90508281526020810184848401111561253a57600080fd5b612545848285613167565b509392505050565b60008135905061255c8161384c565b92915050565b600082601f83011261257357600080fd5b81356125838482602086016124a3565b91505092915050565b60008135905061259b81613863565b92915050565b6000813590506125b08161387a565b92915050565b6000815190506125c58161387a565b92915050565b600082601f8301126125dc57600080fd5b81356125ec84826020860161250f565b91505092915050565b60008135905061260481613891565b92915050565b60006020828403121561261c57600080fd5b600061262a8482850161254d565b91505092915050565b6000806040838503121561264657600080fd5b60006126548582860161254d565b92505060206126658582860161254d565b9150509250929050565b60008060006060848603121561268457600080fd5b60006126928682870161254d565b93505060206126a38682870161254d565b92505060406126b4868287016125f5565b9150509250925092565b600080600080608085870312156126d457600080fd5b60006126e28782880161254d565b94505060206126f38782880161254d565b9350506040612704878288016125f5565b925050606085013567ffffffffffffffff81111561272157600080fd5b61272d878288016125cb565b91505092959194509250565b6000806040838503121561274c57600080fd5b600061275a8582860161254d565b925050602061276b8582860161258c565b9150509250929050565b6000806040838503121561278857600080fd5b60006127968582860161254d565b92505060206127a7858286016125f5565b9150509250929050565b6000602082840312156127c357600080fd5b600082013567ffffffffffffffff8111156127dd57600080fd5b6127e984828501612562565b91505092915050565b60006020828403121561280457600080fd5b6000612812848285016125a1565b91505092915050565b60006020828403121561282d57600080fd5b600061283b848285016125b6565b91505092915050565b60006020828403121561285657600080fd5b6000612864848285016125f5565b91505092915050565b612876816130f3565b82525050565b61288581613105565b82525050565b600061289682612f9b565b6128a08185612fb1565b93506128b0818560208601613176565b6128b981613342565b840191505092915050565b60006128cf82612fa6565b6128d98185612fc2565b93506128e9818560208601613176565b6128f281613342565b840191505092915050565b600061290882612fa6565b6129128185612fd3565b9350612922818560208601613176565b80840191505092915050565b600061293b602b83612fc2565b915061294682613353565b604082019050919050565b600061295e601883612fc2565b9150612969826133a2565b602082019050919050565b6000612981603283612fc2565b915061298c826133cb565b604082019050919050565b60006129a4601c83612fc2565b91506129af8261341a565b602082019050919050565b60006129c7602483612fc2565b91506129d282613443565b604082019050919050565b60006129ea601983612fc2565b91506129f582613492565b602082019050919050565b6000612a0d602c83612fc2565b9150612a18826134bb565b604082019050919050565b6000612a30603883612fc2565b9150612a3b8261350a565b604082019050919050565b6000612a53602a83612fc2565b9150612a5e82613559565b604082019050919050565b6000612a76602983612fc2565b9150612a81826135a8565b604082019050919050565b6000612a99601e83612fc2565b9150612aa4826135f7565b602082019050919050565b6000612abc602083612fc2565b9150612ac782613620565b602082019050919050565b6000612adf602c83612fc2565b9150612aea82613649565b604082019050919050565b6000612b02602983612fc2565b9150612b0d82613698565b604082019050919050565b6000612b25602f83612fc2565b9150612b30826136e7565b604082019050919050565b6000612b48602183612fc2565b9150612b5382613736565b604082019050919050565b6000612b6b603183612fc2565b9150612b7682613785565b604082019050919050565b6000612b8e602c83612fc2565b9150612b99826137d4565b604082019050919050565b6000612bb1601283612fc2565b9150612bbc82613823565b602082019050919050565b612bd08161315d565b82525050565b6000612be282856128fd565b9150612bee82846128fd565b91508190509392505050565b6000602082019050612c0f600083018461286d565b92915050565b6000608082019050612c2a600083018761286d565b612c37602083018661286d565b612c446040830185612bc7565b8181036060830152612c56818461288b565b905095945050505050565b6000602082019050612c76600083018461287c565b92915050565b60006020820190508181036000830152612c9681846128c4565b905092915050565b60006020820190508181036000830152612cb78161292e565b9050919050565b60006020820190508181036000830152612cd781612951565b9050919050565b60006020820190508181036000830152612cf781612974565b9050919050565b60006020820190508181036000830152612d1781612997565b9050919050565b60006020820190508181036000830152612d37816129ba565b9050919050565b60006020820190508181036000830152612d57816129dd565b9050919050565b60006020820190508181036000830152612d7781612a00565b9050919050565b60006020820190508181036000830152612d9781612a23565b9050919050565b60006020820190508181036000830152612db781612a46565b9050919050565b60006020820190508181036000830152612dd781612a69565b9050919050565b60006020820190508181036000830152612df781612a8c565b9050919050565b60006020820190508181036000830152612e1781612aaf565b9050919050565b60006020820190508181036000830152612e3781612ad2565b9050919050565b60006020820190508181036000830152612e5781612af5565b9050919050565b60006020820190508181036000830152612e7781612b18565b9050919050565b60006020820190508181036000830152612e9781612b3b565b9050919050565b60006020820190508181036000830152612eb781612b5e565b9050919050565b60006020820190508181036000830152612ed781612b81565b9050919050565b60006020820190508181036000830152612ef781612ba4565b9050919050565b6000602082019050612f136000830184612bc7565b92915050565b6000612f23612f34565b9050612f2f82826131db565b919050565b6000604051905090565b600067ffffffffffffffff821115612f5957612f58613313565b5b602082029050602081019050919050565b600067ffffffffffffffff821115612f8557612f84613313565b5b612f8e82613342565b9050602081019050919050565b600081519050919050565b600081519050919050565b600082825260208201905092915050565b600082825260208201905092915050565b600081905092915050565b6000612fe98261315d565b9150612ff48361315d565b9250827fffffffffffffffffffffffffffffffffffffffffffffffffffffffffffffffff0382111561302957613028613286565b5b828201905092915050565b600061303f8261315d565b915061304a8361315d565b92508261305a576130596132b5565b5b828204905092915050565b60006130708261315d565b915061307b8361315d565b9250817fffffffffffffffffffffffffffffffffffffffffffffffffffffffffffffffff04831182151516156130b4576130b3613286565b5b828202905092915050565b60006130ca8261315d565b91506130d58361315d565b9250828210156130e8576130e7613286565b5b828203905092915050565b60006130fe8261313d565b9050919050565b60008115159050919050565b60007fffffffff0000000000000000000000000000000000000000000000000000000082169050919050565b600073ffffffffffffffffffffffffffffffffffffffff82169050919050565b6000819050919050565b82818337600083830152505050565b60005b83811015613194578082015181840152602081019050613179565b838111156131a3576000848401525b50505050565b600060028204905060018216806131c157607f821691505b602082108114156131d5576131d46132e4565b5b50919050565b6131e482613342565b810181811067ffffffffffffffff8211171561320357613202613313565b5b80604052505050565b60006132178261315d565b91507fffffffffffffffffffffffffffffffffffffffffffffffffffffffffffffffff82141561324a57613249613286565b5b600182019050919050565b60006132608261315d565b915061326b8361315d565b92508261327b5761327a6132b5565b5b828206905092915050565b7f4e487b7100000000000000000000000000000000000000000000000000000000600052601160045260246000fd5b7f4e487b7100000000000000000000000000000000000000000000000000000000600052601260045260246000fd5b7f4e487b7100000000000000000000000000000000000000000000000000000000600052602260045260246000fd5b7f4e487b7100000000000000000000000000000000000000000000000000000000600052604160045260246000fd5b6000601f19601f8301169050919050565b7f455243373231456e756d657261626c653a206f776e657220696e646578206f7560008201527f74206f6620626f756e6473000000000000000000000000000000000000000000602082015250565b7f4672657368414650756e6b20616c726561647920736f6c640000000000000000600082015250565b7f4552433732313a207472616e7366657220746f206e6f6e20455243373231526560008201527f63656976657220696d706c656d656e7465720000000000000000000000000000602082015250565b7f4552433732313a20746f6b656e20616c7265616479206d696e74656400000000600082015250565b7f4552433732313a207472616e7366657220746f20746865207a65726f2061646460008201527f7265737300000000000000000000000000000000000000000000000000000000602082015250565b7f4552433732313a20617070726f766520746f2063616c6c657200000000000000600082015250565b7f4552433732313a206f70657261746f7220717565727920666f72206e6f6e657860008201527f697374656e7420746f6b656e0000000000000000000000000000000000000000602082015250565b7f4552433732313a20617070726f76652063616c6c6572206973206e6f74206f7760008201527f6e6572206e6f7220617070726f76656420666f7220616c6c0000000000000000602082015250565b7f4552433732313a2062616c616e636520717565727920666f7220746865207a6560008201527f726f206164647265737300000000000000000000000000000000000000000000602082015250565b7f4552433732313a206f776e657220717565727920666f72206e6f6e657869737460008201527f656e7420746f6b656e0000000000000000000000000000000000000000000000602082015250565b7f436f7374206f66204672657368414650756e6b206973206e6f74206d65740000600082015250565b7f4552433732313a206d696e7420746f20746865207a65726f2061646472657373600082015250565b7f4552433732313a20617070726f76656420717565727920666f72206e6f6e657860008201527f697374656e7420746f6b656e0000000000000000000000000000000000000000602082015250565b7f4552433732313a207472616e73666572206f6620746f6b656e2074686174206960008201527f73206e6f74206f776e0000000000000000000000000000000000000000000000602082015250565b7f4552433732314d657461646174613a2055524920717565727920666f72206e6f60008201527f6e6578697374656e7420746f6b656e0000000000000000000000000000000000602082015250565b7f4552433732313a20617070726f76616c20746f2063757272656e74206f776e6560008201527f7200000000000000000000000000000000000000000000000000000000000000602082015250565b7f4552433732313a207472616e736665722063616c6c6572206973206e6f74206f60008201527f776e6572206e6f7220617070726f766564000000000000000000000000000000602082015250565b7f455243373231456e756d657261626c653a20676c6f62616c20696e646578206f60008201527f7574206f6620626f756e64730000000000000000000000000000000000000000602082015250565b7f546f6b656e494420697320696e76616c69640000000000000000000000000000600082015250565b613855816130f3565b811461386057600080fd5b50565b61386c81613105565b811461387757600080fd5b50565b61388381613111565b811461388e57600080fd5b50565b61389a8161315d565b81146138a557600080fd5b5056fe68747470733a2f2f6672657368616670756e6b732d6d657461646174612d6170692e6865726f6b756170702e636f6d2f6170692f746f6b656e68747470733a2f2f6672657368616670756e6b732d6d657461646174612d6170692e6865726f6b756170702e636f6d2f6170692f73746f72652d6d65746164617461a26469706673582212205d613ef06937ac10d3a0f382b4395194d150c2d0a82b8f3626bb851b6e570e9564736f6c63430008030033",
  "immutableReferences": {},
  "source": "// SPDX-License-Identifier: MIT\r\npragma solidity ^0.8.0;\r\n\r\nimport \"@openzeppelin/contracts/token/ERC721/extensions/ERC721Enumerable.sol\";\r\n\r\ncontract FreshAFPunks is ERC721Enumerable {\r\n    uint256 public hardLimit;\r\n    address payable wallet;\r\n\r\n    constructor(address payable _wallet) ERC721(\"FreshAFPunks\", \"FRESHAF\") {\r\n        wallet = _wallet;\r\n        hardLimit = 12500;\r\n    }\r\n\r\n    function contractURI() public pure returns (string memory) {\r\n        return \"https://freshafpunks-metadata-api.herokuapp.com/api/store-metadata\";\r\n    }\r\n\r\n    function _baseURI() internal pure override returns (string memory){\r\n        return \"https://freshafpunks-metadata-api.herokuapp.com/api/token\";\r\n    }\r\n\r\n    function mint(uint[] memory tokenIDs) public payable {           \r\n        require(totalSupply() + tokenIDs.length <= hardLimit, \"TokenID is invalid\");\r\n        if(msg.sender != wallet) {\r\n            uint cost = getCurrentPrice() * tokenIDs.length;\r\n            require(msg.value >=cost, \"Cost of FreshAFPunk is not met\");\r\n        }\r\n        \r\n        for(uint256 i = 0; i < tokenIDs.length; i++) {\r\n            require(!_exists(tokenIDs[i]), 'FreshAFPunk already sold');\r\n        }\r\n\r\n        for(uint256 i = 0; i < tokenIDs.length; i++) {\r\n            _safeMint(msg.sender, tokenIDs[i]);\r\n        }\r\n\r\n        wallet.transfer(msg.value);\r\n    }\r\n\r\n    function getCurrentPrice() public view returns (uint256)  {\r\n        uint256 totalSupply = totalSupply();\r\n\r\n        if(totalSupply <= 299) {\r\n            return 0.01 ether;\r\n        } else if(totalSupply > 299 && totalSupply <= 799) {\r\n            return 0.02 ether;\r\n        } else if(totalSupply > 799 && totalSupply <= 1499) {\r\n            return 0.03 ether;\r\n        } else if(totalSupply > 1499 && totalSupply <= 2299) {\r\n            return 0.04 ether;\r\n        }  else if(totalSupply > 2299 && totalSupply <= 2999) {\r\n            return 0.05 ether;\r\n        }  else if(totalSupply > 2999 && totalSupply <= 3699) {\r\n            return 0.10 ether;\r\n        } else if(totalSupply > 3699 && totalSupply <= 4399) {\r\n            return 0.11 ether;\r\n        } else if(totalSupply > 4399 && totalSupply <= 5099) {\r\n            return 0.12 ether;\r\n        } else if(totalSupply > 5099 && totalSupply <= 5799) {\r\n            return 0.13 ether;\r\n        } else if(totalSupply > 5799 && totalSupply <= 6499) {\r\n            return 0.14 ether;\r\n        }  else if(totalSupply > 6499 && totalSupply <= 7199) {\r\n            return 0.28 ether;\r\n        }  else if(totalSupply > 7199 && totalSupply <= 7899) {\r\n            return 0.29 ether;\r\n        }  else if(totalSupply > 7899 && totalSupply <= 8599) {\r\n            return 0.30 ether;\r\n        }  else if(totalSupply > 8599 && totalSupply <= 9299) {\r\n            return 0.31 ether;\r\n        } else if(totalSupply > 9299 && totalSupply <= 9999) {\r\n            return 0.32 ether;\r\n        } else if(totalSupply > 9999 && totalSupply <= 10699) {\r\n            return 0.64 ether;\r\n        } else if(totalSupply > 10699 && totalSupply <= 11399) {\r\n            return 0.65 ether;\r\n        } else if(totalSupply > 11399 && totalSupply <= 12099) {\r\n            return 0.66 ether;\r\n        }  else if(totalSupply > 12099 && totalSupply <= 12500) {\r\n            return 0.83 ether;\r\n        }\r\n\r\n        return 0.01 ether;\r\n    }\r\n}",
  "sourcePath": "C:/Users/dev/Desktop/NFTFun/FreshAFPunks/contracts/FreshAFPunks.sol",
  "compiler": {
    "name": "solc",
    "version": "0.8.3+commit.8d00100c.Emscripten.clang"
  },
  "schemaVersion": "3.3.4",
  "updatedAt": "2021-03-30T22:32:18.204Z",
  "networkType": "ethereum",
  "devdoc": {
    "kind": "dev",
    "methods": {
      "approve(address,uint256)": {
        "details": "See {IERC721-approve}."
      },
      "balanceOf(address)": {
        "details": "See {IERC721-balanceOf}."
      },
      "getApproved(uint256)": {
        "details": "See {IERC721-getApproved}."
      },
      "isApprovedForAll(address,address)": {
        "details": "See {IERC721-isApprovedForAll}."
      },
      "name()": {
        "details": "See {IERC721Metadata-name}."
      },
      "ownerOf(uint256)": {
        "details": "See {IERC721-ownerOf}."
      },
      "safeTransferFrom(address,address,uint256)": {
        "details": "See {IERC721-safeTransferFrom}."
      },
      "safeTransferFrom(address,address,uint256,bytes)": {
        "details": "See {IERC721-safeTransferFrom}."
      },
      "setApprovalForAll(address,bool)": {
        "details": "See {IERC721-setApprovalForAll}."
      },
      "supportsInterface(bytes4)": {
        "details": "See {IERC165-supportsInterface}."
      },
      "symbol()": {
        "details": "See {IERC721Metadata-symbol}."
      },
      "tokenByIndex(uint256)": {
        "details": "See {IERC721Enumerable-tokenByIndex}."
      },
      "tokenOfOwnerByIndex(address,uint256)": {
        "details": "See {IERC721Enumerable-tokenOfOwnerByIndex}."
      },
      "tokenURI(uint256)": {
        "details": "See {IERC721Metadata-tokenURI}."
      },
      "totalSupply()": {
        "details": "See {IERC721Enumerable-totalSupply}."
      },
      "transferFrom(address,address,uint256)": {
        "details": "See {IERC721-transferFrom}."
      }
    },
    "version": 1
  },
  "userdoc": {
    "kind": "user",
    "methods": {},
    "version": 1
  }
}